{
  "_format": "hh-sol-artifact-1",
  "contractName": "CCDexAggregator",
  "sourceName": "contracts/main/CCDexAggregator.sol",
  "abi": [
    {
      "anonymous": false,
      "inputs": [
        {
          "indexed": false,
          "internalType": "uint8",
          "name": "version",
          "type": "uint8"
        }
      ],
      "name": "Initialized",
      "type": "event"
    },
    {
      "anonymous": false,
      "inputs": [
        {
          "indexed": true,
          "internalType": "address",
          "name": "previousOwner",
          "type": "address"
        },
        {
          "indexed": true,
          "internalType": "address",
          "name": "newOwner",
          "type": "address"
        }
      ],
      "name": "OwnershipTransferred",
      "type": "event"
    },
    {
      "stateMutability": "payable",
      "type": "fallback"
    },
    {
      "inputs": [
        {
          "internalType": "string",
          "name": "",
          "type": "string"
        }
      ],
      "name": "contractList",
      "outputs": [
        {
          "internalType": "string",
          "name": "",
          "type": "string"
        }
      ],
      "stateMutability": "view",
      "type": "function"
    },
    {
      "inputs": [
        {
          "internalType": "address",
          "name": "",
          "type": "address"
        }
      ],
      "name": "dexRouters",
      "outputs": [
        {
          "internalType": "bool",
          "name": "",
          "type": "bool"
        }
      ],
      "stateMutability": "view",
      "type": "function"
    },
    {
      "inputs": [],
      "name": "gatewayContractAddress",
      "outputs": [
        {
          "internalType": "address",
          "name": "",
          "type": "address"
        }
      ],
      "stateMutability": "view",
      "type": "function"
    },
    {
      "inputs": [
        {
          "internalType": "string",
          "name": "requestSender",
          "type": "string"
        },
        {
          "internalType": "bytes",
          "name": "packet",
          "type": "bytes"
        },
        {
          "internalType": "string",
          "name": "srcChainId",
          "type": "string"
        }
      ],
      "name": "iReceive",
      "outputs": [
        {
          "internalType": "bytes",
          "name": "",
          "type": "bytes"
        }
      ],
      "stateMutability": "nonpayable",
      "type": "function"
    },
    {
      "inputs": [
        {
          "internalType": "string",
          "name": "_destChainId",
          "type": "string"
        },
        {
          "components": [
            {
              "internalType": "address",
              "name": "dexRouter",
              "type": "address"
            },
            {
              "internalType": "address",
              "name": "destDexRouter",
              "type": "address"
            },
            {
              "internalType": "address",
              "name": "tokenIn",
              "type": "address"
            },
            {
              "internalType": "address",
              "name": "tokenOut",
              "type": "address"
            },
            {
              "internalType": "uint256",
              "name": "amountIn",
              "type": "uint256"
            },
            {
              "internalType": "uint256",
              "name": "amountOutMin",
              "type": "uint256"
            },
            {
              "internalType": "address",
              "name": "to",
              "type": "address"
            }
          ],
          "internalType": "struct CCDexAggregator.SwapParams",
          "name": "_swapParams",
          "type": "tuple"
        },
        {
          "internalType": "bytes",
          "name": "requestMetadata",
          "type": "bytes"
        }
      ],
      "name": "iSend",
      "outputs": [],
      "stateMutability": "payable",
      "type": "function"
    },
    {
      "inputs": [],
      "name": "initialize",
      "outputs": [],
      "stateMutability": "nonpayable",
      "type": "function"
    },
    {
      "inputs": [],
      "name": "owner",
      "outputs": [
        {
          "internalType": "address",
          "name": "",
          "type": "address"
        }
      ],
      "stateMutability": "view",
      "type": "function"
    },
    {
      "inputs": [],
      "name": "renounceOwnership",
      "outputs": [],
      "stateMutability": "nonpayable",
      "type": "function"
    },
    {
      "inputs": [
        {
          "internalType": "string",
          "name": "_chainId",
          "type": "string"
        },
        {
          "internalType": "string",
          "name": "_contract",
          "type": "string"
        }
      ],
      "name": "setContractList",
      "outputs": [],
      "stateMutability": "nonpayable",
      "type": "function"
    },
    {
      "inputs": [
        {
          "internalType": "address",
          "name": "_gatewayContractAddress",
          "type": "address"
        },
        {
          "internalType": "string",
          "name": "_feePayerAddress",
          "type": "string"
        }
      ],
      "name": "setGatewayContract",
      "outputs": [],
      "stateMutability": "nonpayable",
      "type": "function"
    },
    {
      "inputs": [
        {
          "internalType": "string",
          "name": "_destChainId",
          "type": "string"
        },
        {
          "internalType": "bytes",
          "name": "_requestMetadata",
          "type": "bytes"
        },
        {
          "components": [
            {
              "internalType": "address",
              "name": "dexRouter",
              "type": "address"
            },
            {
              "internalType": "address",
              "name": "destDexRouter",
              "type": "address"
            },
            {
              "internalType": "address",
              "name": "tokenIn",
              "type": "address"
            },
            {
              "internalType": "address",
              "name": "tokenOut",
              "type": "address"
            },
            {
              "internalType": "uint256",
              "name": "amountIn",
              "type": "uint256"
            },
            {
              "internalType": "uint256",
              "name": "amountOutMin",
              "type": "uint256"
            },
            {
              "internalType": "address",
              "name": "to",
              "type": "address"
            }
          ],
          "internalType": "struct CCDexAggregator.SwapParams",
          "name": "_swapParams",
          "type": "tuple"
        }
      ],
      "name": "swapToQr",
      "outputs": [],
      "stateMutability": "payable",
      "type": "function"
    },
    {
      "inputs": [
        {
          "components": [
            {
              "internalType": "address",
              "name": "dexRouter",
              "type": "address"
            },
            {
              "internalType": "address",
              "name": "destDexRouter",
              "type": "address"
            },
            {
              "internalType": "address",
              "name": "tokenIn",
              "type": "address"
            },
            {
              "internalType": "address",
              "name": "tokenOut",
              "type": "address"
            },
            {
              "internalType": "uint256",
              "name": "amountIn",
              "type": "uint256"
            },
            {
              "internalType": "uint256",
              "name": "amountOutMin",
              "type": "uint256"
            },
            {
              "internalType": "address",
              "name": "to",
              "type": "address"
            }
          ],
          "internalType": "struct CCDexAggregator.SwapParams",
          "name": "_swapParams",
          "type": "tuple"
        }
      ],
      "name": "swapToUser",
      "outputs": [],
      "stateMutability": "nonpayable",
      "type": "function"
    },
    {
      "inputs": [
        {
          "internalType": "address",
          "name": "newOwner",
          "type": "address"
        }
      ],
      "name": "transferOwnership",
      "outputs": [],
      "stateMutability": "nonpayable",
      "type": "function"
    },
    {
      "inputs": [],
      "name": "withdrawEther",
      "outputs": [],
      "stateMutability": "nonpayable",
      "type": "function"
    },
    {
      "inputs": [
        {
          "internalType": "address",
          "name": "_token",
          "type": "address"
        }
      ],
      "name": "withdrawToken",
      "outputs": [],
      "stateMutability": "nonpayable",
      "type": "function"
    },
    {
      "stateMutability": "payable",
      "type": "receive"
    }
  ],
  "bytecode": "0x608060405234801561001057600080fd5b50612bd2806100206000396000f3fe6080604052600436106100ec5760003560e01c80638c6d80531161008a578063c94f40ab11610059578063c94f40ab14610301578063dcac74c11461031d578063e563fb3b14610339578063f2fde38b14610362576100f3565b80638c6d8053146102455780638da5cb5b1461026e5780639b94782014610299578063c1c356c5146102c4576100f3565b8063715018a6116100c6578063715018a6146101d75780637362377b146101ee5780638129fc1c14610205578063894760691461021c576100f3565b80631aa6485a1461013457806320718171146101715780634528e952146101ae576100f3565b366100f357005b606760003373ffffffffffffffffffffffffffffffffffffffff1673ffffffffffffffffffffffffffffffffffffffff168152602001908152602001600020005b34801561014057600080fd5b5061015b600480360381019061015691906115c8565b61038b565b604051610168919061170c565b60405180910390f35b34801561017d57600080fd5b506101986004803603810190610193919061185e565b6104bb565b6040516101a591906118fc565b60405180910390f35b3480156101ba57600080fd5b506101d560048036038101906101d0919061191e565b610571565b005b3480156101e357600080fd5b506101ec6105a9565b005b3480156101fa57600080fd5b506102036105bd565b005b34801561021157600080fd5b5061021a61060e565b005b34801561022857600080fd5b50610243600480360381019061023e91906119f4565b610754565b005b34801561025157600080fd5b5061026c60048036038101906102679190611a21565b61085d565b005b34801561027a57600080fd5b50610283610949565b6040516102909190611a8c565b60405180910390f35b3480156102a557600080fd5b506102ae610973565b6040516102bb9190611a8c565b60405180910390f35b3480156102d057600080fd5b506102eb60048036038101906102e691906119f4565b610999565b6040516102f89190611ac2565b60405180910390f35b61031b60048036038101906103169190611c6d565b6109b9565b005b61033760048036038101906103329190611cfa565b610b7c565b005b34801561034557600080fd5b50610360600480360381019061035b9190611d86565b610f50565b005b34801561036e57600080fd5b50610389600480360381019061038491906119f4565b6110e2565b005b6060606560009054906101000a900473ffffffffffffffffffffffffffffffffffffffff1673ffffffffffffffffffffffffffffffffffffffff163373ffffffffffffffffffffffffffffffffffffffff161461041d576040517f08c379a000000000000000000000000000000000000000000000000000000000815260040161041490611dff565b60405180910390fd5b868660405161042d929190611e4f565b604051809103902060668484604051610447929190611e98565b90815260200160405180910390206040516104629190611fa9565b60405180910390201461047457600080fd5b600085858101906104859190611d86565b905061049e8160c0015182606001518360a00151611165565b604051806020016040528060008152509150509695505050505050565b60668180516020810182018051848252602083016020850120818352809550505050505060009150905080546104f090611ee0565b80601f016020809104026020016040519081016040528092919081815260200182805461051c90611ee0565b80156105695780601f1061053e57610100808354040283529160200191610569565b820191906000526020600020905b81548152906001019060200180831161054c57829003601f168201915b505050505081565b61057961127f565b8060668360405161058a9190611ff1565b908152602001604051809103902090816105a491906121b4565b505050565b6105b161127f565b6105bb60006112fd565b565b6105c561127f565b3373ffffffffffffffffffffffffffffffffffffffff166108fc479081150290604051600060405180830381858888f1935050505015801561060b573d6000803e3d6000fd5b50565b60008060019054906101000a900460ff1615905080801561063f5750600160008054906101000a900460ff1660ff16105b8061066c575061064e306113c3565b15801561066b5750600160008054906101000a900460ff1660ff16145b5b6106ab576040517f08c379a00000000000000000000000000000000000000000000000000000000081526004016106a2906122f8565b60405180910390fd5b60016000806101000a81548160ff021916908360ff16021790555080156106e8576001600060016101000a81548160ff0219169083151502179055505b6106f06113e6565b6106f861143f565b80156107515760008060016101000a81548160ff0219169083151502179055507f7f26b83ff96e1f2b6a682f133852f6798a09c465da95921460cefb384740249860016040516107489190612360565b60405180910390a15b50565b61075c61127f565b60008190508073ffffffffffffffffffffffffffffffffffffffff1663a9059cbb338373ffffffffffffffffffffffffffffffffffffffff166370a08231306040518263ffffffff1660e01b81526004016107b79190611a8c565b602060405180830381865afa1580156107d4573d6000803e3d6000fd5b505050506040513d601f19601f820116820180604052508101906107f89190612390565b6040518363ffffffff1660e01b81526004016108159291906123cc565b6020604051808303816000875af1158015610834573d6000803e3d6000fd5b505050506040513d601f19601f820116820180604052508101906108589190612421565b505050565b61086561127f565b81606560006101000a81548173ffffffffffffffffffffffffffffffffffffffff021916908373ffffffffffffffffffffffffffffffffffffffff160217905550606560009054906101000a900473ffffffffffffffffffffffffffffffffffffffff1673ffffffffffffffffffffffffffffffffffffffff1663ef15cbda826040518263ffffffff1660e01b815260040161090191906118fc565b6020604051808303816000875af1158015610920573d6000803e3d6000fd5b505050506040513d601f19601f820116820180604052508101906109449190612390565b505050565b6000603360009054906101000a900473ffffffffffffffffffffffffffffffffffffffff16905090565b606560009054906101000a900473ffffffffffffffffffffffffffffffffffffffff1681565b60676020528060005260406000206000915054906101000a900460ff1681565b7fc5d2460186f7233c927e7db2dcc703c0e500b653ca82273b7bfad8045d85a4706066846040516109ea9190611ff1565b9081526020016040518091039020604051610a059190611fa9565b604051809103902003610a4d576040517f08c379a0000000000000000000000000000000000000000000000000000000008152600401610a449061249a565b60405180910390fd5b600082604051602001610a609190612566565b60405160208183030381529060405290506000606685604051610a839190611ff1565b908152602001604051809103902082604051602001610aa3929190612605565b60405160208183030381529060405290506000606560009054906101000a900473ffffffffffffffffffffffffffffffffffffffff1690508073ffffffffffffffffffffffffffffffffffffffff16637bed470a3460016000604051806020016040528060008152508b8a896040518863ffffffff1660e01b8152600401610b30969594939291906126a8565b60206040518083038185885af1158015610b4e573d6000803e3d6000fd5b50505050506040513d601f19601f82011682018060405250810190610b739190612390565b50505050505050565b828282836040015173ffffffffffffffffffffffffffffffffffffffff166323b872dd333087608001516040518463ffffffff1660e01b8152600401610bc493929190612725565b6020604051808303816000875af1158015610be3573d6000803e3d6000fd5b505050506040513d601f19601f82011682018060405250810190610c079190612421565b50836040015173ffffffffffffffffffffffffffffffffffffffff1663095ea7b3856000015186608001516040518363ffffffff1660e01b8152600401610c4f9291906123cc565b6020604051808303816000875af1158015610c6e573d6000803e3d6000fd5b505050506040513d601f19601f82011682018060405250810190610c929190612421565b506000600267ffffffffffffffff811115610cb057610caf611733565b5b604051908082528060200260200182016040528015610cde5781602001602082028036833780820191505090505b509050846040015181600081518110610cfa57610cf961275c565b5b602002602001019073ffffffffffffffffffffffffffffffffffffffff16908173ffffffffffffffffffffffffffffffffffffffff1681525050846060015181600181518110610d4d57610d4c61275c565b5b602002602001019073ffffffffffffffffffffffffffffffffffffffff16908173ffffffffffffffffffffffffffffffffffffffff1681525050846000015173ffffffffffffffffffffffffffffffffffffffff166338ed173986608001518760a001518430426040518663ffffffff1660e01b8152600401610dd495949392919061283a565b6000604051808303816000875af1158015610df3573d6000803e3d6000fd5b505050506040513d6000823e3d601f19601f82011682018060405250810190610e1c9190612957565b50506000606560009054906101000a900473ffffffffffffffffffffffffffffffffffffffff169050600082604051602001610e589190612566565b60405160208183030381529060405290506000606686604051610e7b9190611ff1565b908152602001604051809103902082604051602001610e9b929190612605565b60405160208183030381529060405290508273ffffffffffffffffffffffffffffffffffffffff16637bed470a3460016000604051806020016040528060008152508b8b886040518863ffffffff1660e01b8152600401610f01969594939291906126a8565b60206040518083038185885af1158015610f1f573d6000803e3d6000fd5b50505050506040513d601f19601f82011682018060405250810190610f449190612390565b50505050505050505050565b6000600267ffffffffffffffff811115610f6d57610f6c611733565b5b604051908082528060200260200182016040528015610f9b5781602001602082028036833780820191505090505b509050816040015181600081518110610fb757610fb661275c565b5b602002602001019073ffffffffffffffffffffffffffffffffffffffff16908173ffffffffffffffffffffffffffffffffffffffff168152505081606001518160018151811061100a5761100961275c565b5b602002602001019073ffffffffffffffffffffffffffffffffffffffff16908173ffffffffffffffffffffffffffffffffffffffff1681525050816020015173ffffffffffffffffffffffffffffffffffffffff166338ed173983608001518460a00151848660c00151426040518663ffffffff1660e01b815260040161109595949392919061283a565b6000604051808303816000875af11580156110b4573d6000803e3d6000fd5b505050506040513d6000823e3d601f19601f820116820180604052508101906110dd9190612957565b505050565b6110ea61127f565b600073ffffffffffffffffffffffffffffffffffffffff168173ffffffffffffffffffffffffffffffffffffffff1603611159576040517f08c379a000000000000000000000000000000000000000000000000000000000815260040161115090612a12565b60405180910390fd5b611162816112fd565b50565b606560009054906101000a900473ffffffffffffffffffffffffffffffffffffffff1673ffffffffffffffffffffffffffffffffffffffff163373ffffffffffffffffffffffffffffffffffffffff16146111f5576040517f08c379a00000000000000000000000000000000000000000000000000000000081526004016111ec90612a7e565b60405180910390fd5b60008290508073ffffffffffffffffffffffffffffffffffffffff1663a9059cbb85846040518363ffffffff1660e01b81526004016112359291906123cc565b6020604051808303816000875af1158015611254573d6000803e3d6000fd5b505050506040513d601f19601f820116820180604052508101906112789190612421565b5050505050565b611287611490565b73ffffffffffffffffffffffffffffffffffffffff166112a5610949565b73ffffffffffffffffffffffffffffffffffffffff16146112fb576040517f08c379a00000000000000000000000000000000000000000000000000000000081526004016112f290612aea565b60405180910390fd5b565b6000603360009054906101000a900473ffffffffffffffffffffffffffffffffffffffff16905081603360006101000a81548173ffffffffffffffffffffffffffffffffffffffff021916908373ffffffffffffffffffffffffffffffffffffffff1602179055508173ffffffffffffffffffffffffffffffffffffffff168173ffffffffffffffffffffffffffffffffffffffff167f8be0079c531659141344cd1fd0a4f28419497f9722a3daafe3b4186f6b6457e060405160405180910390a35050565b6000808273ffffffffffffffffffffffffffffffffffffffff163b119050919050565b600060019054906101000a900460ff16611435576040517f08c379a000000000000000000000000000000000000000000000000000000000815260040161142c90612b7c565b60405180910390fd5b61143d611498565b565b600060019054906101000a900460ff1661148e576040517f08c379a000000000000000000000000000000000000000000000000000000000815260040161148590612b7c565b60405180910390fd5b565b600033905090565b600060019054906101000a900460ff166114e7576040517f08c379a00000000000000000000000000000000000000000000000000000000081526004016114de90612b7c565b60405180910390fd5b6114f76114f2611490565b6112fd565b565b6000604051905090565b600080fd5b600080fd5b600080fd5b600080fd5b600080fd5b60008083601f8401126115325761153161150d565b5b8235905067ffffffffffffffff81111561154f5761154e611512565b5b60208301915083600182028301111561156b5761156a611517565b5b9250929050565b60008083601f8401126115885761158761150d565b5b8235905067ffffffffffffffff8111156115a5576115a4611512565b5b6020830191508360018202830111156115c1576115c0611517565b5b9250929050565b600080600080600080606087890312156115e5576115e4611503565b5b600087013567ffffffffffffffff81111561160357611602611508565b5b61160f89828a0161151c565b9650965050602087013567ffffffffffffffff81111561163257611631611508565b5b61163e89828a01611572565b9450945050604087013567ffffffffffffffff81111561166157611660611508565b5b61166d89828a0161151c565b92509250509295509295509295565b600081519050919050565b600082825260208201905092915050565b60005b838110156116b657808201518184015260208101905061169b565b60008484015250505050565b6000601f19601f8301169050919050565b60006116de8261167c565b6116e88185611687565b93506116f8818560208601611698565b611701816116c2565b840191505092915050565b6000602082019050818103600083015261172681846116d3565b905092915050565b600080fd5b7f4e487b7100000000000000000000000000000000000000000000000000000000600052604160045260246000fd5b61176b826116c2565b810181811067ffffffffffffffff8211171561178a57611789611733565b5b80604052505050565b600061179d6114f9565b90506117a98282611762565b919050565b600067ffffffffffffffff8211156117c9576117c8611733565b5b6117d2826116c2565b9050602081019050919050565b82818337600083830152505050565b60006118016117fc846117ae565b611793565b90508281526020810184848401111561181d5761181c61172e565b5b6118288482856117df565b509392505050565b600082601f8301126118455761184461150d565b5b81356118558482602086016117ee565b91505092915050565b60006020828403121561187457611873611503565b5b600082013567ffffffffffffffff81111561189257611891611508565b5b61189e84828501611830565b91505092915050565b600081519050919050565b600082825260208201905092915050565b60006118ce826118a7565b6118d881856118b2565b93506118e8818560208601611698565b6118f1816116c2565b840191505092915050565b6000602082019050818103600083015261191681846118c3565b905092915050565b6000806040838503121561193557611934611503565b5b600083013567ffffffffffffffff81111561195357611952611508565b5b61195f85828601611830565b925050602083013567ffffffffffffffff8111156119805761197f611508565b5b61198c85828601611830565b9150509250929050565b600073ffffffffffffffffffffffffffffffffffffffff82169050919050565b60006119c182611996565b9050919050565b6119d1816119b6565b81146119dc57600080fd5b50565b6000813590506119ee816119c8565b92915050565b600060208284031215611a0a57611a09611503565b5b6000611a18848285016119df565b91505092915050565b60008060408385031215611a3857611a37611503565b5b6000611a46858286016119df565b925050602083013567ffffffffffffffff811115611a6757611a66611508565b5b611a7385828601611830565b9150509250929050565b611a86816119b6565b82525050565b6000602082019050611aa16000830184611a7d565b92915050565b60008115159050919050565b611abc81611aa7565b82525050565b6000602082019050611ad76000830184611ab3565b92915050565b600080fd5b6000819050919050565b611af581611ae2565b8114611b0057600080fd5b50565b600081359050611b1281611aec565b92915050565b600060e08284031215611b2e57611b2d611add565b5b611b3860e0611793565b90506000611b48848285016119df565b6000830152506020611b5c848285016119df565b6020830152506040611b70848285016119df565b6040830152506060611b84848285016119df565b6060830152506080611b9884828501611b03565b60808301525060a0611bac84828501611b03565b60a08301525060c0611bc0848285016119df565b60c08301525092915050565b600067ffffffffffffffff821115611be757611be6611733565b5b611bf0826116c2565b9050602081019050919050565b6000611c10611c0b84611bcc565b611793565b905082815260208101848484011115611c2c57611c2b61172e565b5b611c378482856117df565b509392505050565b600082601f830112611c5457611c5361150d565b5b8135611c64848260208601611bfd565b91505092915050565b60008060006101208486031215611c8757611c86611503565b5b600084013567ffffffffffffffff811115611ca557611ca4611508565b5b611cb186828701611830565b9350506020611cc286828701611b18565b92505061010084013567ffffffffffffffff811115611ce457611ce3611508565b5b611cf086828701611c3f565b9150509250925092565b60008060006101208486031215611d1457611d13611503565b5b600084013567ffffffffffffffff811115611d3257611d31611508565b5b611d3e86828701611830565b935050602084013567ffffffffffffffff811115611d5f57611d5e611508565b5b611d6b86828701611c3f565b9250506040611d7c86828701611b18565b9150509250925092565b600060e08284031215611d9c57611d9b611503565b5b6000611daa84828501611b18565b91505092915050565b7f6f6e6c7920676174657761790000000000000000000000000000000000000000600082015250565b6000611de9600c836118b2565b9150611df482611db3565b602082019050919050565b60006020820190508181036000830152611e1881611ddc565b9050919050565b600081905092915050565b6000611e368385611e1f565b9350611e438385846117df565b82840190509392505050565b6000611e5c828486611e2a565b91508190509392505050565b600081905092915050565b6000611e7f8385611e68565b9350611e8c8385846117df565b82840190509392505050565b6000611ea5828486611e73565b91508190509392505050565b7f4e487b7100000000000000000000000000000000000000000000000000000000600052602260045260246000fd5b60006002820490506001821680611ef857607f821691505b602082108103611f0b57611f0a611eb1565b5b50919050565b60008190508160005260206000209050919050565b60008154611f3381611ee0565b611f3d8186611e1f565b94506001821660008114611f585760018114611f6d57611fa0565b60ff1983168652811515820286019350611fa0565b611f7685611f11565b60005b83811015611f9857815481890152600182019150602081019050611f79565b838801955050505b50505092915050565b6000611fb58284611f26565b915081905092915050565b6000611fcb826118a7565b611fd58185611e68565b9350611fe5818560208601611698565b80840191505092915050565b6000611ffd8284611fc0565b915081905092915050565b60008190508160005260206000209050919050565b60006020601f8301049050919050565b600082821b905092915050565b60006008830261206a7fffffffffffffffffffffffffffffffffffffffffffffffffffffffffffffffff8261202d565b612074868361202d565b95508019841693508086168417925050509392505050565b6000819050919050565b60006120b16120ac6120a784611ae2565b61208c565b611ae2565b9050919050565b6000819050919050565b6120cb83612096565b6120df6120d7826120b8565b84845461203a565b825550505050565b600090565b6120f46120e7565b6120ff8184846120c2565b505050565b5b81811015612123576121186000826120ec565b600181019050612105565b5050565b601f8211156121685761213981612008565b6121428461201d565b81016020851015612151578190505b61216561215d8561201d565b830182612104565b50505b505050565b600082821c905092915050565b600061218b6000198460080261216d565b1980831691505092915050565b60006121a4838361217a565b9150826002028217905092915050565b6121bd826118a7565b67ffffffffffffffff8111156121d6576121d5611733565b5b6121e08254611ee0565b6121eb828285612127565b600060209050601f83116001811461221e576000841561220c578287015190505b6122168582612198565b86555061227e565b601f19841661222c86612008565b60005b828110156122545784890151825560018201915060208501945060208101905061222f565b86831015612271578489015161226d601f89168261217a565b8355505b6001600288020188555050505b505050505050565b7f496e697469616c697a61626c653a20636f6e747261637420697320616c72656160008201527f647920696e697469616c697a6564000000000000000000000000000000000000602082015250565b60006122e2602e836118b2565b91506122ed82612286565b604082019050919050565b60006020820190508181036000830152612311816122d5565b9050919050565b6000819050919050565b600060ff82169050919050565b600061234a61234561234084612318565b61208c565b612322565b9050919050565b61235a8161232f565b82525050565b60006020820190506123756000830184612351565b92915050565b60008151905061238a81611aec565b92915050565b6000602082840312156123a6576123a5611503565b5b60006123b48482850161237b565b91505092915050565b6123c681611ae2565b82525050565b60006040820190506123e16000830185611a7d565b6123ee60208301846123bd565b9392505050565b6123fe81611aa7565b811461240957600080fd5b50565b60008151905061241b816123f5565b92915050565b60006020828403121561243757612436611503565b5b60006124458482850161240c565b91505092915050565b7f636f6e7472616374206e6f7420666f756e640000000000000000000000000000600082015250565b60006124846012836118b2565b915061248f8261244e565b602082019050919050565b600060208201905081810360008301526124b381612477565b9050919050565b6124c3816119b6565b82525050565b6124d281611ae2565b82525050565b60e0820160008201516124ee60008501826124ba565b50602082015161250160208501826124ba565b50604082015161251460408501826124ba565b50606082015161252760608501826124ba565b50608082015161253a60808501826124c9565b5060a082015161254d60a08501826124c9565b5060c082015161256060c08501826124ba565b50505050565b600060e08201905061257b60008301846124d8565b92915050565b6000815461258e81611ee0565b61259881866118b2565b945060018216600081146125b357600181146125c9576125fc565b60ff1983168652811515602002860193506125fc565b6125d285612008565b60005b838110156125f4578154818901526001820191506020810190506125d5565b808801955050505b50505092915050565b6000604082019050818103600083015261261f8185612581565b9050818103602083015261263381846116d3565b90509392505050565b600061265761265261264d84612318565b61208c565b611ae2565b9050919050565b6126678161263c565b82525050565b6000819050919050565b600061269261268d6126888461266d565b61208c565b611ae2565b9050919050565b6126a281612677565b82525050565b600060c0820190506126bd600083018961265e565b6126ca6020830188612699565b81810360408301526126dc81876118c3565b905081810360608301526126f081866118c3565b9050818103608083015261270481856116d3565b905081810360a083015261271881846116d3565b9050979650505050505050565b600060608201905061273a6000830186611a7d565b6127476020830185611a7d565b61275460408301846123bd565b949350505050565b7f4e487b7100000000000000000000000000000000000000000000000000000000600052603260045260246000fd5b600081519050919050565b600082825260208201905092915050565b6000819050602082019050919050565b60006127c383836124ba565b60208301905092915050565b6000602082019050919050565b60006127e78261278b565b6127f18185612796565b93506127fc836127a7565b8060005b8381101561282d57815161281488826127b7565b975061281f836127cf565b925050600181019050612800565b5085935050505092915050565b600060a08201905061284f60008301886123bd565b61285c60208301876123bd565b818103604083015261286e81866127dc565b905061287d6060830185611a7d565b61288a60808301846123bd565b9695505050505050565b600067ffffffffffffffff8211156128af576128ae611733565b5b602082029050602081019050919050565b60006128d36128ce84612894565b611793565b905080838252602082019050602084028301858111156128f6576128f5611517565b5b835b8181101561291f578061290b888261237b565b8452602084019350506020810190506128f8565b5050509392505050565b600082601f83011261293e5761293d61150d565b5b815161294e8482602086016128c0565b91505092915050565b60006020828403121561296d5761296c611503565b5b600082015167ffffffffffffffff81111561298b5761298a611508565b5b61299784828501612929565b91505092915050565b7f4f776e61626c653a206e6577206f776e657220697320746865207a65726f206160008201527f6464726573730000000000000000000000000000000000000000000000000000602082015250565b60006129fc6026836118b2565b9150612a07826129a0565b604082019050919050565b60006020820190508181036000830152612a2b816129ef565b9050919050565b7f517569636b526176656e203a3a204e6f74206761746577617900000000000000600082015250565b6000612a686019836118b2565b9150612a7382612a32565b602082019050919050565b60006020820190508181036000830152612a9781612a5b565b9050919050565b7f4f776e61626c653a2063616c6c6572206973206e6f7420746865206f776e6572600082015250565b6000612ad46020836118b2565b9150612adf82612a9e565b602082019050919050565b60006020820190508181036000830152612b0381612ac7565b9050919050565b7f496e697469616c697a61626c653a20636f6e7472616374206973206e6f74206960008201527f6e697469616c697a696e67000000000000000000000000000000000000000000602082015250565b6000612b66602b836118b2565b9150612b7182612b0a565b604082019050919050565b60006020820190508181036000830152612b9581612b59565b905091905056fea2646970667358221220c5f54234971d7ccfcf5edfe094eb03b61da657e8767dc572b624862d16c0274764736f6c63430008120033",
  "linkReferences": {},
  "deployedLinkReferences": {}
}