{
  "_format": "hh-sol-artifact-1",
  "contractName": "CCDexAggregator",
  "sourceName": "contracts/main/CCDexAggregator.sol",
  "abi": [
    {
      "anonymous": false,
      "inputs": [
        {
          "indexed": false,
          "internalType": "uint8",
          "name": "version",
          "type": "uint8"
        }
      ],
      "name": "Initialized",
      "type": "event"
    },
    {
      "anonymous": false,
      "inputs": [
        {
          "indexed": true,
          "internalType": "address",
          "name": "previousOwner",
          "type": "address"
        },
        {
          "indexed": true,
          "internalType": "address",
          "name": "newOwner",
          "type": "address"
        }
      ],
      "name": "OwnershipTransferred",
      "type": "event"
    },
    {
      "stateMutability": "payable",
      "type": "fallback"
    },
    {
      "inputs": [
        {
          "internalType": "string",
          "name": "",
          "type": "string"
        }
      ],
      "name": "contractList",
      "outputs": [
        {
          "internalType": "string",
          "name": "",
          "type": "string"
        }
      ],
      "stateMutability": "view",
      "type": "function"
    },
    {
      "inputs": [
        {
          "internalType": "address",
          "name": "",
          "type": "address"
        }
      ],
      "name": "dexRouters",
      "outputs": [
        {
          "internalType": "bool",
          "name": "",
          "type": "bool"
        }
      ],
      "stateMutability": "view",
      "type": "function"
    },
    {
      "inputs": [],
      "name": "gatewayContractAddress",
      "outputs": [
        {
          "internalType": "address",
          "name": "",
          "type": "address"
        }
      ],
      "stateMutability": "view",
      "type": "function"
    },
    {
      "inputs": [
        {
          "internalType": "string",
          "name": "requestSender",
          "type": "string"
        },
        {
          "internalType": "bytes",
          "name": "packet",
          "type": "bytes"
        },
        {
          "internalType": "string",
          "name": "srcChainId",
          "type": "string"
        }
      ],
      "name": "iReceive",
      "outputs": [
        {
          "internalType": "bytes",
          "name": "",
          "type": "bytes"
        }
      ],
      "stateMutability": "nonpayable",
      "type": "function"
    },
    {
      "inputs": [
        {
          "internalType": "string",
          "name": "_destChainId",
          "type": "string"
        },
        {
          "components": [
            {
              "internalType": "address",
              "name": "dexRouter",
              "type": "address"
            },
            {
              "internalType": "address",
              "name": "destDexRouter",
              "type": "address"
            },
            {
              "internalType": "address",
              "name": "tokenIn",
              "type": "address"
            },
            {
              "internalType": "address",
              "name": "tokenOut",
              "type": "address"
            },
            {
              "internalType": "address",
              "name": "destTokenOut",
              "type": "address"
            },
            {
              "internalType": "uint256",
              "name": "amountIn",
              "type": "uint256"
            },
            {
              "internalType": "uint256",
              "name": "amountOutMin",
              "type": "uint256"
            },
            {
              "internalType": "address",
              "name": "to",
              "type": "address"
            }
          ],
          "internalType": "struct CCDexAggregator.SwapParams",
          "name": "_swapParams",
          "type": "tuple"
        },
        {
          "internalType": "bytes",
          "name": "requestMetadata",
          "type": "bytes"
        }
      ],
      "name": "iSend",
      "outputs": [],
      "stateMutability": "payable",
      "type": "function"
    },
    {
      "inputs": [],
      "name": "initialize",
      "outputs": [],
      "stateMutability": "nonpayable",
      "type": "function"
    },
    {
      "inputs": [],
      "name": "operator",
      "outputs": [
        {
          "internalType": "address",
          "name": "",
          "type": "address"
        }
      ],
      "stateMutability": "view",
      "type": "function"
    },
    {
      "inputs": [],
      "name": "owner",
      "outputs": [
        {
          "internalType": "address",
          "name": "",
          "type": "address"
        }
      ],
      "stateMutability": "view",
      "type": "function"
    },
    {
      "inputs": [],
      "name": "renounceOwnership",
      "outputs": [],
      "stateMutability": "nonpayable",
      "type": "function"
    },
    {
      "inputs": [
        {
          "internalType": "string",
          "name": "_chainId",
          "type": "string"
        },
        {
          "internalType": "string",
          "name": "_contract",
          "type": "string"
        }
      ],
      "name": "setContractList",
      "outputs": [],
      "stateMutability": "nonpayable",
      "type": "function"
    },
    {
      "inputs": [
        {
          "internalType": "address",
          "name": "_gatewayContractAddress",
          "type": "address"
        },
        {
          "internalType": "string",
          "name": "_feePayerAddress",
          "type": "string"
        }
      ],
      "name": "setGatewayContract",
      "outputs": [],
      "stateMutability": "nonpayable",
      "type": "function"
    },
    {
      "inputs": [
        {
          "internalType": "address",
          "name": "_operator",
          "type": "address"
        }
      ],
      "name": "setOperator",
      "outputs": [],
      "stateMutability": "nonpayable",
      "type": "function"
    },
    {
      "inputs": [
        {
          "internalType": "string",
          "name": "_destChainId",
          "type": "string"
        },
        {
          "internalType": "bytes",
          "name": "_requestMetadata",
          "type": "bytes"
        },
        {
          "components": [
            {
              "internalType": "address",
              "name": "dexRouter",
              "type": "address"
            },
            {
              "internalType": "address",
              "name": "destDexRouter",
              "type": "address"
            },
            {
              "internalType": "address",
              "name": "tokenIn",
              "type": "address"
            },
            {
              "internalType": "address",
              "name": "tokenOut",
              "type": "address"
            },
            {
              "internalType": "address",
              "name": "destTokenOut",
              "type": "address"
            },
            {
              "internalType": "uint256",
              "name": "amountIn",
              "type": "uint256"
            },
            {
              "internalType": "uint256",
              "name": "amountOutMin",
              "type": "uint256"
            },
            {
              "internalType": "address",
              "name": "to",
              "type": "address"
            }
          ],
          "internalType": "struct CCDexAggregator.SwapParams",
          "name": "_swapParams",
          "type": "tuple"
        }
      ],
      "name": "swapToQr",
      "outputs": [],
      "stateMutability": "payable",
      "type": "function"
    },
    {
      "inputs": [
        {
          "components": [
            {
              "internalType": "address",
              "name": "dexRouter",
              "type": "address"
            },
            {
              "internalType": "address",
              "name": "destDexRouter",
              "type": "address"
            },
            {
              "internalType": "address",
              "name": "tokenIn",
              "type": "address"
            },
            {
              "internalType": "address",
              "name": "tokenOut",
              "type": "address"
            },
            {
              "internalType": "address",
              "name": "destTokenOut",
              "type": "address"
            },
            {
              "internalType": "uint256",
              "name": "amountIn",
              "type": "uint256"
            },
            {
              "internalType": "uint256",
              "name": "amountOutMin",
              "type": "uint256"
            },
            {
              "internalType": "address",
              "name": "to",
              "type": "address"
            }
          ],
          "internalType": "struct CCDexAggregator.SwapParams",
          "name": "_swapParams",
          "type": "tuple"
        }
      ],
      "name": "swapToUser",
      "outputs": [],
      "stateMutability": "nonpayable",
      "type": "function"
    },
    {
      "inputs": [
        {
          "internalType": "address",
          "name": "newOwner",
          "type": "address"
        }
      ],
      "name": "transferOwnership",
      "outputs": [],
      "stateMutability": "nonpayable",
      "type": "function"
    },
    {
      "inputs": [],
      "name": "withdrawEther",
      "outputs": [],
      "stateMutability": "nonpayable",
      "type": "function"
    },
    {
      "inputs": [
        {
          "internalType": "address",
          "name": "_token",
          "type": "address"
        }
      ],
      "name": "withdrawToken",
      "outputs": [],
      "stateMutability": "nonpayable",
      "type": "function"
    },
    {
      "stateMutability": "payable",
      "type": "receive"
    }
  ],
  "bytecode": "0x608060405234801561001057600080fd5b50612cda806100206000396000f3fe6080604052600436106101025760003560e01c80638947606911610095578063b3ab15fb11610064578063b3ab15fb14610321578063c1c356c51461034a578063ecbbfebf14610387578063f2fde38b146103b0578063f3f319a4146103d957610109565b806389476069146102795780638c6d8053146102a25780638da5cb5b146102cb5780639b947820146102f657610109565b8063570ca735116100d1578063570ca73514610209578063715018a6146102345780637362377b1461024b5780638129fc1c1461026257610109565b8063149d5e8a1461014a5780631aa6485a1461016657806320718171146101a35780634528e952146101e057610109565b3661010957005b606760003373ffffffffffffffffffffffffffffffffffffffff1673ffffffffffffffffffffffffffffffffffffffff168152602001908152602001600020005b610164600480360381019061015f9190611933565b6103f5565b005b34801561017257600080fd5b5061018d60048036038101906101889190611a75565b6107c9565b60405161019a9190611ba8565b60405180910390f35b3480156101af57600080fd5b506101ca60048036038101906101c59190611bca565b6108f9565b6040516101d79190611c68565b60405180910390f35b3480156101ec57600080fd5b5061020760048036038101906102029190611c8a565b6109af565b005b34801561021557600080fd5b5061021e6109e7565b60405161022b9190611d11565b60405180910390f35b34801561024057600080fd5b50610249610a0d565b005b34801561025757600080fd5b50610260610a21565b005b34801561026e57600080fd5b50610277610a72565b005b34801561028557600080fd5b506102a0600480360381019061029b9190611d2c565b610bb8565b005b3480156102ae57600080fd5b506102c960048036038101906102c49190611d59565b610cc1565b005b3480156102d757600080fd5b506102e0610dad565b6040516102ed9190611d11565b60405180910390f35b34801561030257600080fd5b5061030b610dd7565b6040516103189190611d11565b60405180910390f35b34801561032d57600080fd5b5061034860048036038101906103439190611d2c565b610dfd565b005b34801561035657600080fd5b50610371600480360381019061036c9190611d2c565b610e49565b60405161037e9190611dd0565b60405180910390f35b34801561039357600080fd5b506103ae60048036038101906103a99190611deb565b610e69565b005b3480156103bc57600080fd5b506103d760048036038101906103d29190611d2c565b610ffb565b005b6103f360048036038101906103ee9190611e19565b61107e565b005b828282836040015173ffffffffffffffffffffffffffffffffffffffff166323b872dd33308760a001516040518463ffffffff1660e01b815260040161043d93929190611eb5565b6020604051808303816000875af115801561045c573d6000803e3d6000fd5b505050506040513d601f19601f820116820180604052508101906104809190611f18565b50836040015173ffffffffffffffffffffffffffffffffffffffff1663095ea7b385600001518660a001516040518363ffffffff1660e01b81526004016104c8929190611f45565b6020604051808303816000875af11580156104e7573d6000803e3d6000fd5b505050506040513d601f19601f8201168201806040525081019061050b9190611f18565b506000600267ffffffffffffffff81111561052957610528611604565b5b6040519080825280602002602001820160405280156105575781602001602082028036833780820191505090505b50905084604001518160008151811061057357610572611f6e565b5b602002602001019073ffffffffffffffffffffffffffffffffffffffff16908173ffffffffffffffffffffffffffffffffffffffff16815250508460600151816001815181106105c6576105c5611f6e565b5b602002602001019073ffffffffffffffffffffffffffffffffffffffff16908173ffffffffffffffffffffffffffffffffffffffff1681525050846000015173ffffffffffffffffffffffffffffffffffffffff166338ed17398660a001518760c001518430426040518663ffffffff1660e01b815260040161064d95949392919061205b565b6000604051808303816000875af115801561066c573d6000803e3d6000fd5b505050506040513d6000823e3d601f19601f82011682018060405250810190610695919061218d565b50506000606560009054906101000a900473ffffffffffffffffffffffffffffffffffffffff1690506000826040516020016106d19190612287565b604051602081830303815290604052905060006066866040516106f491906122df565b9081526020016040518091039020826040516020016107149291906123ef565b60405160208183030381529060405290508273ffffffffffffffffffffffffffffffffffffffff16637bed470a3460016000604051806020016040528060008152508b8b886040518863ffffffff1660e01b815260040161077a969594939291906124a6565b60206040518083038185885af1158015610798573d6000803e3d6000fd5b50505050506040513d601f19601f820116820180604052508101906107bd9190612523565b50505050505050505050565b6060606860009054906101000a900473ffffffffffffffffffffffffffffffffffffffff1673ffffffffffffffffffffffffffffffffffffffff163373ffffffffffffffffffffffffffffffffffffffff161461085b576040517f08c379a00000000000000000000000000000000000000000000000000000000081526004016108529061259c565b60405180910390fd5b868660405161086b9291906125ec565b60405180910390206066848460405161088592919061262a565b90815260200160405180910390206040516108a091906126db565b6040518091039020146108b257600080fd5b600085858101906108c39190611deb565b90506108dc8160e0015182608001518360c00151611241565b604051806020016040528060008152509150509695505050505050565b606681805160208101820180518482526020830160208501208183528095505050505050600091509050805461092e90612325565b80601f016020809104026020016040519081016040528092919081815260200182805461095a90612325565b80156109a75780601f1061097c576101008083540402835291602001916109a7565b820191906000526020600020905b81548152906001019060200180831161098a57829003601f168201915b505050505081565b6109b761135b565b806066836040516109c891906122df565b908152602001604051809103902090816109e2919061287f565b505050565b606860009054906101000a900473ffffffffffffffffffffffffffffffffffffffff1681565b610a1561135b565b610a1f60006113d9565b565b610a2961135b565b3373ffffffffffffffffffffffffffffffffffffffff166108fc479081150290604051600060405180830381858888f19350505050158015610a6f573d6000803e3d6000fd5b50565b60008060019054906101000a900460ff16159050808015610aa35750600160008054906101000a900460ff1660ff16105b80610ad05750610ab23061149f565b158015610acf5750600160008054906101000a900460ff1660ff16145b5b610b0f576040517f08c379a0000000000000000000000000000000000000000000000000000000008152600401610b06906129c3565b60405180910390fd5b60016000806101000a81548160ff021916908360ff1602179055508015610b4c576001600060016101000a81548160ff0219169083151502179055505b610b546114c2565b610b5c61151b565b8015610bb55760008060016101000a81548160ff0219169083151502179055507f7f26b83ff96e1f2b6a682f133852f6798a09c465da95921460cefb38474024986001604051610bac9190612a21565b60405180910390a15b50565b610bc061135b565b60008190508073ffffffffffffffffffffffffffffffffffffffff1663a9059cbb338373ffffffffffffffffffffffffffffffffffffffff166370a08231306040518263ffffffff1660e01b8152600401610c1b9190611d11565b602060405180830381865afa158015610c38573d6000803e3d6000fd5b505050506040513d601f19601f82011682018060405250810190610c5c9190612523565b6040518363ffffffff1660e01b8152600401610c79929190611f45565b6020604051808303816000875af1158015610c98573d6000803e3d6000fd5b505050506040513d601f19601f82011682018060405250810190610cbc9190611f18565b505050565b610cc961135b565b81606560006101000a81548173ffffffffffffffffffffffffffffffffffffffff021916908373ffffffffffffffffffffffffffffffffffffffff160217905550606560009054906101000a900473ffffffffffffffffffffffffffffffffffffffff1673ffffffffffffffffffffffffffffffffffffffff1663ef15cbda826040518263ffffffff1660e01b8152600401610d659190611c68565b6020604051808303816000875af1158015610d84573d6000803e3d6000fd5b505050506040513d601f19601f82011682018060405250810190610da89190612523565b505050565b6000603360009054906101000a900473ffffffffffffffffffffffffffffffffffffffff16905090565b606560009054906101000a900473ffffffffffffffffffffffffffffffffffffffff1681565b610e0561135b565b80606860006101000a81548173ffffffffffffffffffffffffffffffffffffffff021916908373ffffffffffffffffffffffffffffffffffffffff16021790555050565b60676020528060005260406000206000915054906101000a900460ff1681565b6000600267ffffffffffffffff811115610e8657610e85611604565b5b604051908082528060200260200182016040528015610eb45781602001602082028036833780820191505090505b509050816040015181600081518110610ed057610ecf611f6e565b5b602002602001019073ffffffffffffffffffffffffffffffffffffffff16908173ffffffffffffffffffffffffffffffffffffffff1681525050816060015181600181518110610f2357610f22611f6e565b5b602002602001019073ffffffffffffffffffffffffffffffffffffffff16908173ffffffffffffffffffffffffffffffffffffffff1681525050816020015173ffffffffffffffffffffffffffffffffffffffff166338ed17398360a001518460c00151848660e00151426040518663ffffffff1660e01b8152600401610fae95949392919061205b565b6000604051808303816000875af1158015610fcd573d6000803e3d6000fd5b505050506040513d6000823e3d601f19601f82011682018060405250810190610ff6919061218d565b505050565b61100361135b565b600073ffffffffffffffffffffffffffffffffffffffff168173ffffffffffffffffffffffffffffffffffffffff1603611072576040517f08c379a000000000000000000000000000000000000000000000000000000000815260040161106990612aae565b60405180910390fd5b61107b816113d9565b50565b7fc5d2460186f7233c927e7db2dcc703c0e500b653ca82273b7bfad8045d85a4706066846040516110af91906122df565b90815260200160405180910390206040516110ca91906126db565b604051809103902003611112576040517f08c379a000000000000000000000000000000000000000000000000000000000815260040161110990612b1a565b60405180910390fd5b6000826040516020016111259190612287565b6040516020818303038152906040529050600060668560405161114891906122df565b9081526020016040518091039020826040516020016111689291906123ef565b60405160208183030381529060405290506000606560009054906101000a900473ffffffffffffffffffffffffffffffffffffffff1690508073ffffffffffffffffffffffffffffffffffffffff16637bed470a3460016000604051806020016040528060008152508b8a896040518863ffffffff1660e01b81526004016111f5969594939291906124a6565b60206040518083038185885af1158015611213573d6000803e3d6000fd5b50505050506040513d601f19601f820116820180604052508101906112389190612523565b50505050505050565b606860009054906101000a900473ffffffffffffffffffffffffffffffffffffffff1673ffffffffffffffffffffffffffffffffffffffff163373ffffffffffffffffffffffffffffffffffffffff16146112d1576040517f08c379a00000000000000000000000000000000000000000000000000000000081526004016112c890612b86565b60405180910390fd5b60008290508073ffffffffffffffffffffffffffffffffffffffff1663a9059cbb85846040518363ffffffff1660e01b8152600401611311929190611f45565b6020604051808303816000875af1158015611330573d6000803e3d6000fd5b505050506040513d601f19601f820116820180604052508101906113549190611f18565b5050505050565b61136361156c565b73ffffffffffffffffffffffffffffffffffffffff16611381610dad565b73ffffffffffffffffffffffffffffffffffffffff16146113d7576040517f08c379a00000000000000000000000000000000000000000000000000000000081526004016113ce90612bf2565b60405180910390fd5b565b6000603360009054906101000a900473ffffffffffffffffffffffffffffffffffffffff16905081603360006101000a81548173ffffffffffffffffffffffffffffffffffffffff021916908373ffffffffffffffffffffffffffffffffffffffff1602179055508173ffffffffffffffffffffffffffffffffffffffff168173ffffffffffffffffffffffffffffffffffffffff167f8be0079c531659141344cd1fd0a4f28419497f9722a3daafe3b4186f6b6457e060405160405180910390a35050565b6000808273ffffffffffffffffffffffffffffffffffffffff163b119050919050565b600060019054906101000a900460ff16611511576040517f08c379a000000000000000000000000000000000000000000000000000000000815260040161150890612c84565b60405180910390fd5b611519611574565b565b600060019054906101000a900460ff1661156a576040517f08c379a000000000000000000000000000000000000000000000000000000000815260040161156190612c84565b60405180910390fd5b565b600033905090565b600060019054906101000a900460ff166115c3576040517f08c379a00000000000000000000000000000000000000000000000000000000081526004016115ba90612c84565b60405180910390fd5b6115d36115ce61156c565b6113d9565b565b6000604051905090565b600080fd5b600080fd5b600080fd5b600080fd5b6000601f19601f8301169050919050565b7f4e487b7100000000000000000000000000000000000000000000000000000000600052604160045260246000fd5b61163c826115f3565b810181811067ffffffffffffffff8211171561165b5761165a611604565b5b80604052505050565b600061166e6115d5565b905061167a8282611633565b919050565b600067ffffffffffffffff82111561169a57611699611604565b5b6116a3826115f3565b9050602081019050919050565b82818337600083830152505050565b60006116d26116cd8461167f565b611664565b9050828152602081018484840111156116ee576116ed6115ee565b5b6116f98482856116b0565b509392505050565b600082601f830112611716576117156115e9565b5b81356117268482602086016116bf565b91505092915050565b600067ffffffffffffffff82111561174a57611749611604565b5b611753826115f3565b9050602081019050919050565b600061177361176e8461172f565b611664565b90508281526020810184848401111561178f5761178e6115ee565b5b61179a8482856116b0565b509392505050565b600082601f8301126117b7576117b66115e9565b5b81356117c7848260208601611760565b91505092915050565b600080fd5b600073ffffffffffffffffffffffffffffffffffffffff82169050919050565b6000611800826117d5565b9050919050565b611810816117f5565b811461181b57600080fd5b50565b60008135905061182d81611807565b92915050565b6000819050919050565b61184681611833565b811461185157600080fd5b50565b6000813590506118638161183d565b92915050565b600061010082840312156118805761187f6117d0565b5b61188b610100611664565b9050600061189b8482850161181e565b60008301525060206118af8482850161181e565b60208301525060406118c38482850161181e565b60408301525060606118d78482850161181e565b60608301525060806118eb8482850161181e565b60808301525060a06118ff84828501611854565b60a08301525060c061191384828501611854565b60c08301525060e06119278482850161181e565b60e08301525092915050565b6000806000610140848603121561194d5761194c6115df565b5b600084013567ffffffffffffffff81111561196b5761196a6115e4565b5b61197786828701611701565b935050602084013567ffffffffffffffff811115611998576119976115e4565b5b6119a4868287016117a2565b92505060406119b586828701611869565b9150509250925092565b600080fd5b600080fd5b60008083601f8401126119df576119de6115e9565b5b8235905067ffffffffffffffff8111156119fc576119fb6119bf565b5b602083019150836001820283011115611a1857611a176119c4565b5b9250929050565b60008083601f840112611a3557611a346115e9565b5b8235905067ffffffffffffffff811115611a5257611a516119bf565b5b602083019150836001820283011115611a6e57611a6d6119c4565b5b9250929050565b60008060008060008060608789031215611a9257611a916115df565b5b600087013567ffffffffffffffff811115611ab057611aaf6115e4565b5b611abc89828a016119c9565b9650965050602087013567ffffffffffffffff811115611adf57611ade6115e4565b5b611aeb89828a01611a1f565b9450945050604087013567ffffffffffffffff811115611b0e57611b0d6115e4565b5b611b1a89828a016119c9565b92509250509295509295509295565b600081519050919050565b600082825260208201905092915050565b60005b83811015611b63578082015181840152602081019050611b48565b60008484015250505050565b6000611b7a82611b29565b611b848185611b34565b9350611b94818560208601611b45565b611b9d816115f3565b840191505092915050565b60006020820190508181036000830152611bc28184611b6f565b905092915050565b600060208284031215611be057611bdf6115df565b5b600082013567ffffffffffffffff811115611bfe57611bfd6115e4565b5b611c0a84828501611701565b91505092915050565b600081519050919050565b600082825260208201905092915050565b6000611c3a82611c13565b611c448185611c1e565b9350611c54818560208601611b45565b611c5d816115f3565b840191505092915050565b60006020820190508181036000830152611c828184611c2f565b905092915050565b60008060408385031215611ca157611ca06115df565b5b600083013567ffffffffffffffff811115611cbf57611cbe6115e4565b5b611ccb85828601611701565b925050602083013567ffffffffffffffff811115611cec57611ceb6115e4565b5b611cf885828601611701565b9150509250929050565b611d0b816117f5565b82525050565b6000602082019050611d266000830184611d02565b92915050565b600060208284031215611d4257611d416115df565b5b6000611d508482850161181e565b91505092915050565b60008060408385031215611d7057611d6f6115df565b5b6000611d7e8582860161181e565b925050602083013567ffffffffffffffff811115611d9f57611d9e6115e4565b5b611dab85828601611701565b9150509250929050565b60008115159050919050565b611dca81611db5565b82525050565b6000602082019050611de56000830184611dc1565b92915050565b60006101008284031215611e0257611e016115df565b5b6000611e1084828501611869565b91505092915050565b60008060006101408486031215611e3357611e326115df565b5b600084013567ffffffffffffffff811115611e5157611e506115e4565b5b611e5d86828701611701565b9350506020611e6e86828701611869565b92505061012084013567ffffffffffffffff811115611e9057611e8f6115e4565b5b611e9c868287016117a2565b9150509250925092565b611eaf81611833565b82525050565b6000606082019050611eca6000830186611d02565b611ed76020830185611d02565b611ee46040830184611ea6565b949350505050565b611ef581611db5565b8114611f0057600080fd5b50565b600081519050611f1281611eec565b92915050565b600060208284031215611f2e57611f2d6115df565b5b6000611f3c84828501611f03565b91505092915050565b6000604082019050611f5a6000830185611d02565b611f676020830184611ea6565b9392505050565b7f4e487b7100000000000000000000000000000000000000000000000000000000600052603260045260246000fd5b600081519050919050565b600082825260208201905092915050565b6000819050602082019050919050565b611fd2816117f5565b82525050565b6000611fe48383611fc9565b60208301905092915050565b6000602082019050919050565b600061200882611f9d565b6120128185611fa8565b935061201d83611fb9565b8060005b8381101561204e5781516120358882611fd8565b975061204083611ff0565b925050600181019050612021565b5085935050505092915050565b600060a0820190506120706000830188611ea6565b61207d6020830187611ea6565b818103604083015261208f8186611ffd565b905061209e6060830185611d02565b6120ab6080830184611ea6565b9695505050505050565b600067ffffffffffffffff8211156120d0576120cf611604565b5b602082029050602081019050919050565b6000815190506120f08161183d565b92915050565b6000612109612104846120b5565b611664565b9050808382526020820190506020840283018581111561212c5761212b6119c4565b5b835b81811015612155578061214188826120e1565b84526020840193505060208101905061212e565b5050509392505050565b600082601f830112612174576121736115e9565b5b81516121848482602086016120f6565b91505092915050565b6000602082840312156121a3576121a26115df565b5b600082015167ffffffffffffffff8111156121c1576121c06115e4565b5b6121cd8482850161215f565b91505092915050565b6121df81611833565b82525050565b610100820160008201516121fc6000850182611fc9565b50602082015161220f6020850182611fc9565b5060408201516122226040850182611fc9565b5060608201516122356060850182611fc9565b5060808201516122486080850182611fc9565b5060a082015161225b60a08501826121d6565b5060c082015161226e60c08501826121d6565b5060e082015161228160e0850182611fc9565b50505050565b60006101008201905061229d60008301846121e5565b92915050565b600081905092915050565b60006122b982611c13565b6122c381856122a3565b93506122d3818560208601611b45565b80840191505092915050565b60006122eb82846122ae565b915081905092915050565b7f4e487b7100000000000000000000000000000000000000000000000000000000600052602260045260246000fd5b6000600282049050600182168061233d57607f821691505b6020821081036123505761234f6122f6565b5b50919050565b60008190508160005260206000209050919050565b6000815461237881612325565b6123828186611c1e565b9450600182166000811461239d57600181146123b3576123e6565b60ff1983168652811515602002860193506123e6565b6123bc85612356565b60005b838110156123de578154818901526001820191506020810190506123bf565b808801955050505b50505092915050565b60006040820190508181036000830152612409818561236b565b9050818103602083015261241d8184611b6f565b90509392505050565b6000819050919050565b6000819050919050565b600061245561245061244b84612426565b612430565b611833565b9050919050565b6124658161243a565b82525050565b6000819050919050565b600061249061248b6124868461246b565b612430565b611833565b9050919050565b6124a081612475565b82525050565b600060c0820190506124bb600083018961245c565b6124c86020830188612497565b81810360408301526124da8187611c2f565b905081810360608301526124ee8186611c2f565b905081810360808301526125028185611b6f565b905081810360a08301526125168184611b6f565b9050979650505050505050565b600060208284031215612539576125386115df565b5b6000612547848285016120e1565b91505092915050565b7f6f6e6c79206f70657261746f7200000000000000000000000000000000000000600082015250565b6000612586600d83611c1e565b915061259182612550565b602082019050919050565b600060208201905081810360008301526125b581612579565b9050919050565b600081905092915050565b60006125d383856125bc565b93506125e08385846116b0565b82840190509392505050565b60006125f98284866125c7565b91508190509392505050565b600061261183856122a3565b935061261e8385846116b0565b82840190509392505050565b6000612637828486612605565b91508190509392505050565b60008190508160005260206000209050919050565b6000815461266581612325565b61266f81866125bc565b9450600182166000811461268a576001811461269f576126d2565b60ff19831686528115158202860193506126d2565b6126a885612643565b60005b838110156126ca578154818901526001820191506020810190506126ab565b838801955050505b50505092915050565b60006126e78284612658565b915081905092915050565b60006020601f8301049050919050565b600082821b905092915050565b60006008830261273f7fffffffffffffffffffffffffffffffffffffffffffffffffffffffffffffffff82612702565b6127498683612702565b95508019841693508086168417925050509392505050565b600061277c61277761277284611833565b612430565b611833565b9050919050565b6000819050919050565b61279683612761565b6127aa6127a282612783565b84845461270f565b825550505050565b600090565b6127bf6127b2565b6127ca81848461278d565b505050565b5b818110156127ee576127e36000826127b7565b6001810190506127d0565b5050565b601f8211156128335761280481612356565b61280d846126f2565b8101602085101561281c578190505b612830612828856126f2565b8301826127cf565b50505b505050565b600082821c905092915050565b600061285660001984600802612838565b1980831691505092915050565b600061286f8383612845565b9150826002028217905092915050565b61288882611c13565b67ffffffffffffffff8111156128a1576128a0611604565b5b6128ab8254612325565b6128b68282856127f2565b600060209050601f8311600181146128e957600084156128d7578287015190505b6128e18582612863565b865550612949565b601f1984166128f786612356565b60005b8281101561291f578489015182556001820191506020850194506020810190506128fa565b8683101561293c5784890151612938601f891682612845565b8355505b6001600288020188555050505b505050505050565b7f496e697469616c697a61626c653a20636f6e747261637420697320616c72656160008201527f647920696e697469616c697a6564000000000000000000000000000000000000602082015250565b60006129ad602e83611c1e565b91506129b882612951565b604082019050919050565b600060208201905081810360008301526129dc816129a0565b9050919050565b600060ff82169050919050565b6000612a0b612a06612a0184612426565b612430565b6129e3565b9050919050565b612a1b816129f0565b82525050565b6000602082019050612a366000830184612a12565b92915050565b7f4f776e61626c653a206e6577206f776e657220697320746865207a65726f206160008201527f6464726573730000000000000000000000000000000000000000000000000000602082015250565b6000612a98602683611c1e565b9150612aa382612a3c565b604082019050919050565b60006020820190508181036000830152612ac781612a8b565b9050919050565b7f636f6e7472616374206e6f7420666f756e640000000000000000000000000000600082015250565b6000612b04601283611c1e565b9150612b0f82612ace565b602082019050919050565b60006020820190508181036000830152612b3381612af7565b9050919050565b7f517569636b526176656e203a3a204e6f74206f70657261746f72000000000000600082015250565b6000612b70601a83611c1e565b9150612b7b82612b3a565b602082019050919050565b60006020820190508181036000830152612b9f81612b63565b9050919050565b7f4f776e61626c653a2063616c6c6572206973206e6f7420746865206f776e6572600082015250565b6000612bdc602083611c1e565b9150612be782612ba6565b602082019050919050565b60006020820190508181036000830152612c0b81612bcf565b9050919050565b7f496e697469616c697a61626c653a20636f6e7472616374206973206e6f74206960008201527f6e697469616c697a696e67000000000000000000000000000000000000000000602082015250565b6000612c6e602b83611c1e565b9150612c7982612c12565b604082019050919050565b60006020820190508181036000830152612c9d81612c61565b905091905056fea2646970667358221220afec272a3ef53b1cefead7bf7142e6955e0f5666a651f56a9c70b1ab7f4038f964736f6c63430008120033",
  "linkReferences": {},
  "deployedLinkReferences": {}
}