{
  "_format": "hh-sol-artifact-1",
  "contractName": "DexAggregator",
  "sourceName": "contracts/main/DexAggregator.sol",
  "abi": [
    {
      "inputs": [],
      "name": "WETH",
      "outputs": [
        {
          "internalType": "address",
          "name": "",
          "type": "address"
        }
      ],
      "stateMutability": "view",
      "type": "function"
    },
    {
      "inputs": [
        {
          "internalType": "address",
          "name": "_dexRouter",
          "type": "address"
        },
        {
          "internalType": "address",
          "name": "_tokenIn",
          "type": "address"
        },
        {
          "internalType": "address",
          "name": "_tokenOut",
          "type": "address"
        },
        {
          "internalType": "uint256",
          "name": "_amountIn",
          "type": "uint256"
        },
        {
          "internalType": "uint256",
          "name": "_amountOutMin",
          "type": "uint256"
        },
        {
          "internalType": "address",
          "name": "_to",
          "type": "address"
        }
      ],
      "name": "swap",
      "outputs": [],
      "stateMutability": "nonpayable",
      "type": "function"
    }
  ],
  "bytecode": "0x608060405234801561001057600080fd5b506108ee806100206000396000f3fe608060405234801561001057600080fd5b50600436106100365760003560e01c80637c6c84af1461003b578063ad5c464814610057575b600080fd5b6100556004803603810190610050919061042f565b610075565b005b61005f610363565b60405161006c91906104cb565b60405180910390f35b8473ffffffffffffffffffffffffffffffffffffffff166323b872dd3330866040518463ffffffff1660e01b81526004016100b2939291906104f5565b6020604051808303816000875af11580156100d1573d6000803e3d6000fd5b505050506040513d601f19601f820116820180604052508101906100f59190610564565b508473ffffffffffffffffffffffffffffffffffffffff1663095ea7b387856040518363ffffffff1660e01b8152600401610131929190610591565b6020604051808303816000875af1158015610150573d6000803e3d6000fd5b505050506040513d601f19601f820116820180604052508101906101749190610564565b506000600367ffffffffffffffff811115610192576101916105ba565b5b6040519080825280602002602001820160405280156101c05781602001602082028036833780820191505090505b50905085816000815181106101d8576101d76105e9565b5b602002602001019073ffffffffffffffffffffffffffffffffffffffff16908173ffffffffffffffffffffffffffffffffffffffff168152505060008054906101000a900473ffffffffffffffffffffffffffffffffffffffff1681600181518110610247576102466105e9565b5b602002602001019073ffffffffffffffffffffffffffffffffffffffff16908173ffffffffffffffffffffffffffffffffffffffff16815250508481600281518110610296576102956105e9565b5b602002602001019073ffffffffffffffffffffffffffffffffffffffff16908173ffffffffffffffffffffffffffffffffffffffff16815250508673ffffffffffffffffffffffffffffffffffffffff166338ed173985858486426040518663ffffffff1660e01b81526004016103119594939291906106d6565b6000604051808303816000875af1158015610330573d6000803e3d6000fd5b505050506040513d6000823e3d601f19601f82011682018060405250810190610359919061086f565b5050505050505050565b60008054906101000a900473ffffffffffffffffffffffffffffffffffffffff1681565b6000604051905090565b600080fd5b600080fd5b600073ffffffffffffffffffffffffffffffffffffffff82169050919050565b60006103c68261039b565b9050919050565b6103d6816103bb565b81146103e157600080fd5b50565b6000813590506103f3816103cd565b92915050565b6000819050919050565b61040c816103f9565b811461041757600080fd5b50565b60008135905061042981610403565b92915050565b60008060008060008060c0878903121561044c5761044b610391565b5b600061045a89828a016103e4565b965050602061046b89828a016103e4565b955050604061047c89828a016103e4565b945050606061048d89828a0161041a565b935050608061049e89828a0161041a565b92505060a06104af89828a016103e4565b9150509295509295509295565b6104c5816103bb565b82525050565b60006020820190506104e060008301846104bc565b92915050565b6104ef816103f9565b82525050565b600060608201905061050a60008301866104bc565b61051760208301856104bc565b61052460408301846104e6565b949350505050565b60008115159050919050565b6105418161052c565b811461054c57600080fd5b50565b60008151905061055e81610538565b92915050565b60006020828403121561057a57610579610391565b5b60006105888482850161054f565b91505092915050565b60006040820190506105a660008301856104bc565b6105b360208301846104e6565b9392505050565b7f4e487b7100000000000000000000000000000000000000000000000000000000600052604160045260246000fd5b7f4e487b7100000000000000000000000000000000000000000000000000000000600052603260045260246000fd5b600081519050919050565b600082825260208201905092915050565b6000819050602082019050919050565b61064d816103bb565b82525050565b600061065f8383610644565b60208301905092915050565b6000602082019050919050565b600061068382610618565b61068d8185610623565b935061069883610634565b8060005b838110156106c95781516106b08882610653565b97506106bb8361066b565b92505060018101905061069c565b5085935050505092915050565b600060a0820190506106eb60008301886104e6565b6106f860208301876104e6565b818103604083015261070a8186610678565b905061071960608301856104bc565b61072660808301846104e6565b9695505050505050565b600080fd5b6000601f19601f8301169050919050565b61074f82610735565b810181811067ffffffffffffffff8211171561076e5761076d6105ba565b5b80604052505050565b6000610781610387565b905061078d8282610746565b919050565b600067ffffffffffffffff8211156107ad576107ac6105ba565b5b602082029050602081019050919050565b600080fd5b6000815190506107d281610403565b92915050565b60006107eb6107e684610792565b610777565b9050808382526020820190506020840283018581111561080e5761080d6107be565b5b835b81811015610837578061082388826107c3565b845260208401935050602081019050610810565b5050509392505050565b600082601f83011261085657610855610730565b5b81516108668482602086016107d8565b91505092915050565b60006020828403121561088557610884610391565b5b600082015167ffffffffffffffff8111156108a3576108a2610396565b5b6108af84828501610841565b9150509291505056fea264697066735822122078ed4d9259c89474da149e869cada73c92da51b236453bfb94d88545ff023adc64736f6c63430008120033",
  "linkReferences": {},
  "deployedLinkReferences": {}
}