{
    "_format": "hh-sol-artifact-1",
    "contractName": "Token",
    "sourceName": "contracts/token/Token.sol",
    "abi": [
        {
            "anonymous": false,
            "inputs": [
                {
                    "indexed": true,
                    "internalType": "address",
                    "name": "owner",
                    "type": "address"
                },
                {
                    "indexed": true,
                    "internalType": "address",
                    "name": "spender",
                    "type": "address"
                },
                {
                    "indexed": false,
                    "internalType": "uint256",
                    "name": "value",
                    "type": "uint256"
                }
            ],
            "name": "Approval",
            "type": "event"
        },
        {
            "anonymous": false,
            "inputs": [
                {
                    "indexed": false,
                    "internalType": "uint8",
                    "name": "version",
                    "type": "uint8"
                }
            ],
            "name": "Initialized",
            "type": "event"
        },
        {
            "anonymous": false,
            "inputs": [
                {
                    "indexed": true,
                    "internalType": "address",
                    "name": "from",
                    "type": "address"
                },
                {
                    "indexed": true,
                    "internalType": "address",
                    "name": "to",
                    "type": "address"
                },
                {
                    "indexed": false,
                    "internalType": "uint256",
                    "name": "value",
                    "type": "uint256"
                }
            ],
            "name": "Transfer",
            "type": "event"
        },
        {
            "inputs": [
                {
                    "internalType": "address",
                    "name": "owner",
                    "type": "address"
                },
                {
                    "internalType": "address",
                    "name": "spender",
                    "type": "address"
                }
            ],
            "name": "allowance",
            "outputs": [
                {
                    "internalType": "uint256",
                    "name": "",
                    "type": "uint256"
                }
            ],
            "stateMutability": "view",
            "type": "function"
        },
        {
            "inputs": [
                {
                    "internalType": "address",
                    "name": "spender",
                    "type": "address"
                },
                {
                    "internalType": "uint256",
                    "name": "amount",
                    "type": "uint256"
                }
            ],
            "name": "approve",
            "outputs": [
                {
                    "internalType": "bool",
                    "name": "",
                    "type": "bool"
                }
            ],
            "stateMutability": "nonpayable",
            "type": "function"
        },
        {
            "inputs": [
                {
                    "internalType": "address",
                    "name": "account",
                    "type": "address"
                }
            ],
            "name": "balanceOf",
            "outputs": [
                {
                    "internalType": "uint256",
                    "name": "",
                    "type": "uint256"
                }
            ],
            "stateMutability": "view",
            "type": "function"
        },
        {
            "inputs": [],
            "name": "decimals",
            "outputs": [
                {
                    "internalType": "uint8",
                    "name": "",
                    "type": "uint8"
                }
            ],
            "stateMutability": "view",
            "type": "function"
        },
        {
            "inputs": [
                {
                    "internalType": "address",
                    "name": "spender",
                    "type": "address"
                },
                {
                    "internalType": "uint256",
                    "name": "subtractedValue",
                    "type": "uint256"
                }
            ],
            "name": "decreaseAllowance",
            "outputs": [
                {
                    "internalType": "bool",
                    "name": "",
                    "type": "bool"
                }
            ],
            "stateMutability": "nonpayable",
            "type": "function"
        },
        {
            "inputs": [
                {
                    "internalType": "address",
                    "name": "spender",
                    "type": "address"
                },
                {
                    "internalType": "uint256",
                    "name": "addedValue",
                    "type": "uint256"
                }
            ],
            "name": "increaseAllowance",
            "outputs": [
                {
                    "internalType": "bool",
                    "name": "",
                    "type": "bool"
                }
            ],
            "stateMutability": "nonpayable",
            "type": "function"
        },
        {
            "inputs": [
                {
                    "internalType": "string",
                    "name": "_name",
                    "type": "string"
                },
                {
                    "internalType": "string",
                    "name": "_ticker",
                    "type": "string"
                }
            ],
            "name": "initialize",
            "outputs": [],
            "stateMutability": "nonpayable",
            "type": "function"
        },
        {
            "inputs": [
                {
                    "internalType": "address",
                    "name": "_account",
                    "type": "address"
                },
                {
                    "internalType": "uint256",
                    "name": "_amount",
                    "type": "uint256"
                }
            ],
            "name": "mint",
            "outputs": [],
            "stateMutability": "nonpayable",
            "type": "function"
        },
        {
            "inputs": [],
            "name": "name",
            "outputs": [
                {
                    "internalType": "string",
                    "name": "",
                    "type": "string"
                }
            ],
            "stateMutability": "view",
            "type": "function"
        },
        {
            "inputs": [],
            "name": "symbol",
            "outputs": [
                {
                    "internalType": "string",
                    "name": "",
                    "type": "string"
                }
            ],
            "stateMutability": "view",
            "type": "function"
        },
        {
            "inputs": [],
            "name": "totalSupply",
            "outputs": [
                {
                    "internalType": "uint256",
                    "name": "",
                    "type": "uint256"
                }
            ],
            "stateMutability": "view",
            "type": "function"
        },
        {
            "inputs": [
                {
                    "internalType": "address",
                    "name": "to",
                    "type": "address"
                },
                {
                    "internalType": "uint256",
                    "name": "amount",
                    "type": "uint256"
                }
            ],
            "name": "transfer",
            "outputs": [
                {
                    "internalType": "bool",
                    "name": "",
                    "type": "bool"
                }
            ],
            "stateMutability": "nonpayable",
            "type": "function"
        },
        {
            "inputs": [
                {
                    "internalType": "address",
                    "name": "from",
                    "type": "address"
                },
                {
                    "internalType": "address",
                    "name": "to",
                    "type": "address"
                },
                {
                    "internalType": "uint256",
                    "name": "amount",
                    "type": "uint256"
                }
            ],
            "name": "transferFrom",
            "outputs": [
                {
                    "internalType": "bool",
                    "name": "",
                    "type": "bool"
                }
            ],
            "stateMutability": "nonpayable",
            "type": "function"
        }
    ],
    "bytecode": "0x608060405234801561001057600080fd5b50611c4b806100206000396000f3fe608060405234801561001057600080fd5b50600436106100cf5760003560e01c806340c10f191161008c57806395d89b411161006657806395d89b4114610226578063a457c2d714610244578063a9059cbb14610274578063dd62ed3e146102a4576100cf565b806340c10f19146101be5780634cd88b76146101da57806370a08231146101f6576100cf565b806306fdde03146100d4578063095ea7b3146100f257806318160ddd1461012257806323b872dd14610140578063313ce56714610170578063395093511461018e575b600080fd5b6100dc6102d4565b6040516100e99190610f08565b60405180910390f35b61010c60048036038101906101079190610fd2565b610366565b604051610119919061102d565b60405180910390f35b61012a610389565b6040516101379190611057565b60405180910390f35b61015a60048036038101906101559190611072565b610393565b604051610167919061102d565b60405180910390f35b6101786103c2565b60405161018591906110e1565b60405180910390f35b6101a860048036038101906101a39190610fd2565b6103cb565b6040516101b5919061102d565b60405180910390f35b6101d860048036038101906101d39190610fd2565b610402565b005b6101f460048036038101906101ef9190611231565b610410565b005b610210600480360381019061020b91906112a9565b610552565b60405161021d9190611057565b60405180910390f35b61022e61059b565b60405161023b9190610f08565b60405180910390f35b61025e60048036038101906102599190610fd2565b61062d565b60405161026b919061102d565b60405180910390f35b61028e60048036038101906102899190610fd2565b6106a4565b60405161029b919061102d565b60405180910390f35b6102be60048036038101906102b991906112d6565b6106c7565b6040516102cb9190611057565b60405180910390f35b6060603680546102e390611345565b80601f016020809104026020016040519081016040528092919081815260200182805461030f90611345565b801561035c5780601f106103315761010080835404028352916020019161035c565b820191906000526020600020905b81548152906001019060200180831161033f57829003601f168201915b5050505050905090565b60008061037161074e565b905061037e818585610756565b600191505092915050565b6000603554905090565b60008061039e61074e565b90506103ab85828561091f565b6103b68585856109ab565b60019150509392505050565b60006012905090565b6000806103d661074e565b90506103f78185856103e885896106c7565b6103f291906113a5565b610756565b600191505092915050565b61040c8282610c24565b5050565b60008060019054906101000a900460ff161590508080156104415750600160008054906101000a900460ff1660ff16105b8061046e575061045030610d7b565b15801561046d5750600160008054906101000a900460ff1660ff16145b5b6104ad576040517f08c379a00000000000000000000000000000000000000000000000000000000081526004016104a49061144b565b60405180910390fd5b60016000806101000a81548160ff021916908360ff16021790555080156104ea576001600060016101000a81548160ff0219169083151502179055505b6104f48383610d9e565b801561054d5760008060016101000a81548160ff0219169083151502179055507f7f26b83ff96e1f2b6a682f133852f6798a09c465da95921460cefb3847402498600160405161054491906114b0565b60405180910390a15b505050565b6000603360008373ffffffffffffffffffffffffffffffffffffffff1673ffffffffffffffffffffffffffffffffffffffff168152602001908152602001600020549050919050565b6060603780546105aa90611345565b80601f01602080910402602001604051908101604052809291908181526020018280546105d690611345565b80156106235780601f106105f857610100808354040283529160200191610623565b820191906000526020600020905b81548152906001019060200180831161060657829003601f168201915b5050505050905090565b60008061063861074e565b9050600061064682866106c7565b90508381101561068b576040517f08c379a00000000000000000000000000000000000000000000000000000000081526004016106829061153d565b60405180910390fd5b6106988286868403610756565b60019250505092915050565b6000806106af61074e565b90506106bc8185856109ab565b600191505092915050565b6000603460008473ffffffffffffffffffffffffffffffffffffffff1673ffffffffffffffffffffffffffffffffffffffff16815260200190815260200160002060008373ffffffffffffffffffffffffffffffffffffffff1673ffffffffffffffffffffffffffffffffffffffff16815260200190815260200160002054905092915050565b600033905090565b600073ffffffffffffffffffffffffffffffffffffffff168373ffffffffffffffffffffffffffffffffffffffff16036107c5576040517f08c379a00000000000000000000000000000000000000000000000000000000081526004016107bc906115cf565b60405180910390fd5b600073ffffffffffffffffffffffffffffffffffffffff168273ffffffffffffffffffffffffffffffffffffffff1603610834576040517f08c379a000000000000000000000000000000000000000000000000000000000815260040161082b90611661565b60405180910390fd5b80603460008573ffffffffffffffffffffffffffffffffffffffff1673ffffffffffffffffffffffffffffffffffffffff16815260200190815260200160002060008473ffffffffffffffffffffffffffffffffffffffff1673ffffffffffffffffffffffffffffffffffffffff168152602001908152602001600020819055508173ffffffffffffffffffffffffffffffffffffffff168373ffffffffffffffffffffffffffffffffffffffff167f8c5be1e5ebec7d5bd14f71427d1e84f3dd0314c0f7b2291e5b200ac8c7c3b925836040516109129190611057565b60405180910390a3505050565b600061092b84846106c7565b90507fffffffffffffffffffffffffffffffffffffffffffffffffffffffffffffffff81146109a55781811015610997576040517f08c379a000000000000000000000000000000000000000000000000000000000815260040161098e906116cd565b60405180910390fd5b6109a48484848403610756565b5b50505050565b600073ffffffffffffffffffffffffffffffffffffffff168373ffffffffffffffffffffffffffffffffffffffff1603610a1a576040517f08c379a0000000000000000000000000000000000000000000000000000000008152600401610a119061175f565b60405180910390fd5b600073ffffffffffffffffffffffffffffffffffffffff168273ffffffffffffffffffffffffffffffffffffffff1603610a89576040517f08c379a0000000000000000000000000000000000000000000000000000000008152600401610a80906117f1565b60405180910390fd5b610a94838383610dfb565b6000603360008573ffffffffffffffffffffffffffffffffffffffff1673ffffffffffffffffffffffffffffffffffffffff16815260200190815260200160002054905081811015610b1b576040517f08c379a0000000000000000000000000000000000000000000000000000000008152600401610b1290611883565b60405180910390fd5b818103603360008673ffffffffffffffffffffffffffffffffffffffff1673ffffffffffffffffffffffffffffffffffffffff1681526020019081526020016000208190555081603360008573ffffffffffffffffffffffffffffffffffffffff1673ffffffffffffffffffffffffffffffffffffffff168152602001908152602001600020600082825401925050819055508273ffffffffffffffffffffffffffffffffffffffff168473ffffffffffffffffffffffffffffffffffffffff167fddf252ad1be2c89b69c2b068fc378daa952ba7f163c4a11628f55a4df523b3ef84604051610c0b9190611057565b60405180910390a3610c1e848484610e00565b50505050565b600073ffffffffffffffffffffffffffffffffffffffff168273ffffffffffffffffffffffffffffffffffffffff1603610c93576040517f08c379a0000000000000000000000000000000000000000000000000000000008152600401610c8a906118ef565b60405180910390fd5b610c9f60008383610dfb565b8060356000828254610cb191906113a5565b9250508190555080603360008473ffffffffffffffffffffffffffffffffffffffff1673ffffffffffffffffffffffffffffffffffffffff168152602001908152602001600020600082825401925050819055508173ffffffffffffffffffffffffffffffffffffffff16600073ffffffffffffffffffffffffffffffffffffffff167fddf252ad1be2c89b69c2b068fc378daa952ba7f163c4a11628f55a4df523b3ef83604051610d639190611057565b60405180910390a3610d7760008383610e00565b5050565b6000808273ffffffffffffffffffffffffffffffffffffffff163b119050919050565b600060019054906101000a900460ff16610ded576040517f08c379a0000000000000000000000000000000000000000000000000000000008152600401610de490611981565b60405180910390fd5b610df78282610e05565b5050565b505050565b505050565b600060019054906101000a900460ff16610e54576040517f08c379a0000000000000000000000000000000000000000000000000000000008152600401610e4b90611981565b60405180910390fd5b8160369081610e639190611b43565b508060379081610e739190611b43565b505050565b600081519050919050565b600082825260208201905092915050565b60005b83811015610eb2578082015181840152602081019050610e97565b60008484015250505050565b6000601f19601f8301169050919050565b6000610eda82610e78565b610ee48185610e83565b9350610ef4818560208601610e94565b610efd81610ebe565b840191505092915050565b60006020820190508181036000830152610f228184610ecf565b905092915050565b6000604051905090565b600080fd5b600080fd5b600073ffffffffffffffffffffffffffffffffffffffff82169050919050565b6000610f6982610f3e565b9050919050565b610f7981610f5e565b8114610f8457600080fd5b50565b600081359050610f9681610f70565b92915050565b6000819050919050565b610faf81610f9c565b8114610fba57600080fd5b50565b600081359050610fcc81610fa6565b92915050565b60008060408385031215610fe957610fe8610f34565b5b6000610ff785828601610f87565b925050602061100885828601610fbd565b9150509250929050565b60008115159050919050565b61102781611012565b82525050565b6000602082019050611042600083018461101e565b92915050565b61105181610f9c565b82525050565b600060208201905061106c6000830184611048565b92915050565b60008060006060848603121561108b5761108a610f34565b5b600061109986828701610f87565b93505060206110aa86828701610f87565b92505060406110bb86828701610fbd565b9150509250925092565b600060ff82169050919050565b6110db816110c5565b82525050565b60006020820190506110f660008301846110d2565b92915050565b600080fd5b600080fd5b7f4e487b7100000000000000000000000000000000000000000000000000000000600052604160045260246000fd5b61113e82610ebe565b810181811067ffffffffffffffff8211171561115d5761115c611106565b5b80604052505050565b6000611170610f2a565b905061117c8282611135565b919050565b600067ffffffffffffffff82111561119c5761119b611106565b5b6111a582610ebe565b9050602081019050919050565b82818337600083830152505050565b60006111d46111cf84611181565b611166565b9050828152602081018484840111156111f0576111ef611101565b5b6111fb8482856111b2565b509392505050565b600082601f830112611218576112176110fc565b5b81356112288482602086016111c1565b91505092915050565b6000806040838503121561124857611247610f34565b5b600083013567ffffffffffffffff81111561126657611265610f39565b5b61127285828601611203565b925050602083013567ffffffffffffffff81111561129357611292610f39565b5b61129f85828601611203565b9150509250929050565b6000602082840312156112bf576112be610f34565b5b60006112cd84828501610f87565b91505092915050565b600080604083850312156112ed576112ec610f34565b5b60006112fb85828601610f87565b925050602061130c85828601610f87565b9150509250929050565b7f4e487b7100000000000000000000000000000000000000000000000000000000600052602260045260246000fd5b6000600282049050600182168061135d57607f821691505b6020821081036113705761136f611316565b5b50919050565b7f4e487b7100000000000000000000000000000000000000000000000000000000600052601160045260246000fd5b60006113b082610f9c565b91506113bb83610f9c565b92508282019050808211156113d3576113d2611376565b5b92915050565b7f496e697469616c697a61626c653a20636f6e747261637420697320616c72656160008201527f647920696e697469616c697a6564000000000000000000000000000000000000602082015250565b6000611435602e83610e83565b9150611440826113d9565b604082019050919050565b6000602082019050818103600083015261146481611428565b9050919050565b6000819050919050565b6000819050919050565b600061149a6114956114908461146b565b611475565b6110c5565b9050919050565b6114aa8161147f565b82525050565b60006020820190506114c560008301846114a1565b92915050565b7f45524332303a2064656372656173656420616c6c6f77616e63652062656c6f7760008201527f207a65726f000000000000000000000000000000000000000000000000000000602082015250565b6000611527602583610e83565b9150611532826114cb565b604082019050919050565b600060208201905081810360008301526115568161151a565b9050919050565b7f45524332303a20617070726f76652066726f6d20746865207a65726f2061646460008201527f7265737300000000000000000000000000000000000000000000000000000000602082015250565b60006115b9602483610e83565b91506115c48261155d565b604082019050919050565b600060208201905081810360008301526115e8816115ac565b9050919050565b7f45524332303a20617070726f766520746f20746865207a65726f20616464726560008201527f7373000000000000000000000000000000000000000000000000000000000000602082015250565b600061164b602283610e83565b9150611656826115ef565b604082019050919050565b6000602082019050818103600083015261167a8161163e565b9050919050565b7f45524332303a20696e73756666696369656e7420616c6c6f77616e6365000000600082015250565b60006116b7601d83610e83565b91506116c282611681565b602082019050919050565b600060208201905081810360008301526116e6816116aa565b9050919050565b7f45524332303a207472616e736665722066726f6d20746865207a65726f20616460008201527f6472657373000000000000000000000000000000000000000000000000000000602082015250565b6000611749602583610e83565b9150611754826116ed565b604082019050919050565b600060208201905081810360008301526117788161173c565b9050919050565b7f45524332303a207472616e7366657220746f20746865207a65726f206164647260008201527f6573730000000000000000000000000000000000000000000000000000000000602082015250565b60006117db602383610e83565b91506117e68261177f565b604082019050919050565b6000602082019050818103600083015261180a816117ce565b9050919050565b7f45524332303a207472616e7366657220616d6f756e742065786365656473206260008201527f616c616e63650000000000000000000000000000000000000000000000000000602082015250565b600061186d602683610e83565b915061187882611811565b604082019050919050565b6000602082019050818103600083015261189c81611860565b9050919050565b7f45524332303a206d696e7420746f20746865207a65726f206164647265737300600082015250565b60006118d9601f83610e83565b91506118e4826118a3565b602082019050919050565b60006020820190508181036000830152611908816118cc565b9050919050565b7f496e697469616c697a61626c653a20636f6e7472616374206973206e6f74206960008201527f6e697469616c697a696e67000000000000000000000000000000000000000000602082015250565b600061196b602b83610e83565b91506119768261190f565b604082019050919050565b6000602082019050818103600083015261199a8161195e565b9050919050565b60008190508160005260206000209050919050565b60006020601f8301049050919050565b600082821b905092915050565b600060088302611a037fffffffffffffffffffffffffffffffffffffffffffffffffffffffffffffffff826119c6565b611a0d86836119c6565b95508019841693508086168417925050509392505050565b6000611a40611a3b611a3684610f9c565b611475565b610f9c565b9050919050565b6000819050919050565b611a5a83611a25565b611a6e611a6682611a47565b8484546119d3565b825550505050565b600090565b611a83611a76565b611a8e818484611a51565b505050565b5b81811015611ab257611aa7600082611a7b565b600181019050611a94565b5050565b601f821115611af757611ac8816119a1565b611ad1846119b6565b81016020851015611ae0578190505b611af4611aec856119b6565b830182611a93565b50505b505050565b600082821c905092915050565b6000611b1a60001984600802611afc565b1980831691505092915050565b6000611b338383611b09565b9150826002028217905092915050565b611b4c82610e78565b67ffffffffffffffff811115611b6557611b64611106565b5b611b6f8254611345565b611b7a828285611ab6565b600060209050601f831160018114611bad5760008415611b9b578287015190505b611ba58582611b27565b865550611c0d565b601f198416611bbb866119a1565b60005b82811015611be357848901518255600182019150602085019450602081019050611bbe565b86831015611c005784890151611bfc601f891682611b09565b8355505b6001600288020188555050505b50505050505056fea2646970667358221220da5b567d1625b4e1e0505cdfdea09abcb80762a61c04e3fbb0790377a94a7a8564736f6c63430008120033",
    "linkReferences": {},
    "deployedLinkReferences": {}
}