{
  "_format": "hh-sol-artifact-1",
  "contractName": "DexAggregator",
  "sourceName": "contracts/main/DexAggregator.sol",
  "abi": [
    {
      "anonymous": false,
      "inputs": [
        {
          "indexed": false,
          "internalType": "uint8",
          "name": "version",
          "type": "uint8"
        }
      ],
      "name": "Initialized",
      "type": "event"
    },
    {
      "anonymous": false,
      "inputs": [
        {
          "indexed": true,
          "internalType": "address",
          "name": "previousOwner",
          "type": "address"
        },
        {
          "indexed": true,
          "internalType": "address",
          "name": "newOwner",
          "type": "address"
        }
      ],
      "name": "OwnershipTransferred",
      "type": "event"
    },
    {
      "inputs": [],
      "name": "initialize",
      "outputs": [],
      "stateMutability": "nonpayable",
      "type": "function"
    },
    {
      "inputs": [],
      "name": "owner",
      "outputs": [
        {
          "internalType": "address",
          "name": "",
          "type": "address"
        }
      ],
      "stateMutability": "view",
      "type": "function"
    },
    {
      "inputs": [],
      "name": "renounceOwnership",
      "outputs": [],
      "stateMutability": "nonpayable",
      "type": "function"
    },
    {
      "inputs": [
        {
          "internalType": "address",
          "name": "_dexRouter",
          "type": "address"
        },
        {
          "internalType": "address",
          "name": "_tokenIn",
          "type": "address"
        },
        {
          "internalType": "address",
          "name": "_tokenOut",
          "type": "address"
        },
        {
          "internalType": "uint256",
          "name": "_amountIn",
          "type": "uint256"
        },
        {
          "internalType": "uint256",
          "name": "_amountOutMin",
          "type": "uint256"
        }
      ],
      "name": "swapToQr",
      "outputs": [],
      "stateMutability": "nonpayable",
      "type": "function"
    },
    {
      "inputs": [
        {
          "internalType": "address",
          "name": "_dexRouter",
          "type": "address"
        },
        {
          "internalType": "address",
          "name": "_tokenIn",
          "type": "address"
        },
        {
          "internalType": "address",
          "name": "_tokenOut",
          "type": "address"
        },
        {
          "internalType": "uint256",
          "name": "_amountIn",
          "type": "uint256"
        },
        {
          "internalType": "uint256",
          "name": "_amountOutMin",
          "type": "uint256"
        },
        {
          "internalType": "address",
          "name": "_to",
          "type": "address"
        }
      ],
      "name": "swapToUser",
      "outputs": [],
      "stateMutability": "nonpayable",
      "type": "function"
    },
    {
      "inputs": [
        {
          "internalType": "address",
          "name": "newOwner",
          "type": "address"
        }
      ],
      "name": "transferOwnership",
      "outputs": [],
      "stateMutability": "nonpayable",
      "type": "function"
    },
    {
      "inputs": [],
      "name": "withdrawEther",
      "outputs": [],
      "stateMutability": "nonpayable",
      "type": "function"
    },
    {
      "inputs": [
        {
          "internalType": "address",
          "name": "_token",
          "type": "address"
        }
      ],
      "name": "withdrawToken",
      "outputs": [],
      "stateMutability": "nonpayable",
      "type": "function"
    }
  ],
  "bytecode": "0x608060405234801561001057600080fd5b506114ed806100206000396000f3fe608060405234801561001057600080fd5b50600436106100885760003560e01c8063894760691161005b57806389476069146100c75780638da5cb5b146100e3578063aa3db91214610101578063f2fde38b1461011d57610088565b806320408fac1461008d578063715018a6146100a95780637362377b146100b35780638129fc1c146100bd575b600080fd5b6100a760048036038101906100a29190610cb9565b610139565b005b6100b16103b7565b005b6100bb6103cb565b005b6100c561041c565b005b6100e160048036038101906100dc9190610d34565b610562565b005b6100eb61066b565b6040516100f89190610d70565b60405180910390f35b61011b60048036038101906101169190610d8b565b610695565b005b61013760048036038101906101329190610d34565b610914565b005b8373ffffffffffffffffffffffffffffffffffffffff166323b872dd3330856040518463ffffffff1660e01b815260040161017693929190610e27565b6020604051808303816000875af1158015610195573d6000803e3d6000fd5b505050506040513d601f19601f820116820180604052508101906101b99190610e96565b508373ffffffffffffffffffffffffffffffffffffffff1663095ea7b386846040518363ffffffff1660e01b81526004016101f5929190610ec3565b6020604051808303816000875af1158015610214573d6000803e3d6000fd5b505050506040513d601f19601f820116820180604052508101906102389190610e96565b506000600267ffffffffffffffff81111561025657610255610eec565b5b6040519080825280602002602001820160405280156102845781602001602082028036833780820191505090505b509050848160008151811061029c5761029b610f1b565b5b602002602001019073ffffffffffffffffffffffffffffffffffffffff16908173ffffffffffffffffffffffffffffffffffffffff168152505083816001815181106102eb576102ea610f1b565b5b602002602001019073ffffffffffffffffffffffffffffffffffffffff16908173ffffffffffffffffffffffffffffffffffffffff16815250508573ffffffffffffffffffffffffffffffffffffffff166338ed173984848430426040518663ffffffff1660e01b8152600401610366959493929190611008565b6000604051808303816000875af1158015610385573d6000803e3d6000fd5b505050506040513d6000823e3d601f19601f820116820180604052508101906103ae91906111a1565b50505050505050565b6103bf610997565b6103c96000610a15565b565b6103d3610997565b3373ffffffffffffffffffffffffffffffffffffffff166108fc479081150290604051600060405180830381858888f19350505050158015610419573d6000803e3d6000fd5b50565b60008060019054906101000a900460ff1615905080801561044d5750600160008054906101000a900460ff1660ff16105b8061047a575061045c30610adb565b1580156104795750600160008054906101000a900460ff1660ff16145b5b6104b9576040517f08c379a00000000000000000000000000000000000000000000000000000000081526004016104b09061126d565b60405180910390fd5b60016000806101000a81548160ff021916908360ff16021790555080156104f6576001600060016101000a81548160ff0219169083151502179055505b6104fe610afe565b610506610b57565b801561055f5760008060016101000a81548160ff0219169083151502179055507f7f26b83ff96e1f2b6a682f133852f6798a09c465da95921460cefb3847402498600160405161055691906112df565b60405180910390a15b50565b61056a610997565b60008190508073ffffffffffffffffffffffffffffffffffffffff1663a9059cbb338373ffffffffffffffffffffffffffffffffffffffff166370a08231306040518263ffffffff1660e01b81526004016105c59190610d70565b602060405180830381865afa1580156105e2573d6000803e3d6000fd5b505050506040513d601f19601f8201168201806040525081019061060691906112fa565b6040518363ffffffff1660e01b8152600401610623929190610ec3565b6020604051808303816000875af1158015610642573d6000803e3d6000fd5b505050506040513d601f19601f820116820180604052508101906106669190610e96565b505050565b6000603360009054906101000a900473ffffffffffffffffffffffffffffffffffffffff16905090565b8473ffffffffffffffffffffffffffffffffffffffff166323b872dd3330866040518463ffffffff1660e01b81526004016106d293929190610e27565b6020604051808303816000875af11580156106f1573d6000803e3d6000fd5b505050506040513d601f19601f820116820180604052508101906107159190610e96565b508473ffffffffffffffffffffffffffffffffffffffff1663095ea7b387856040518363ffffffff1660e01b8152600401610751929190610ec3565b6020604051808303816000875af1158015610770573d6000803e3d6000fd5b505050506040513d601f19601f820116820180604052508101906107949190610e96565b506000600267ffffffffffffffff8111156107b2576107b1610eec565b5b6040519080825280602002602001820160405280156107e05781602001602082028036833780820191505090505b50905085816000815181106107f8576107f7610f1b565b5b602002602001019073ffffffffffffffffffffffffffffffffffffffff16908173ffffffffffffffffffffffffffffffffffffffff1681525050848160018151811061084757610846610f1b565b5b602002602001019073ffffffffffffffffffffffffffffffffffffffff16908173ffffffffffffffffffffffffffffffffffffffff16815250508673ffffffffffffffffffffffffffffffffffffffff166338ed173985858486426040518663ffffffff1660e01b81526004016108c2959493929190611008565b6000604051808303816000875af11580156108e1573d6000803e3d6000fd5b505050506040513d6000823e3d601f19601f8201168201806040525081019061090a91906111a1565b5050505050505050565b61091c610997565b600073ffffffffffffffffffffffffffffffffffffffff168173ffffffffffffffffffffffffffffffffffffffff160361098b576040517f08c379a000000000000000000000000000000000000000000000000000000000815260040161098290611399565b60405180910390fd5b61099481610a15565b50565b61099f610ba8565b73ffffffffffffffffffffffffffffffffffffffff166109bd61066b565b73ffffffffffffffffffffffffffffffffffffffff1614610a13576040517f08c379a0000000000000000000000000000000000000000000000000000000008152600401610a0a90611405565b60405180910390fd5b565b6000603360009054906101000a900473ffffffffffffffffffffffffffffffffffffffff16905081603360006101000a81548173ffffffffffffffffffffffffffffffffffffffff021916908373ffffffffffffffffffffffffffffffffffffffff1602179055508173ffffffffffffffffffffffffffffffffffffffff168173ffffffffffffffffffffffffffffffffffffffff167f8be0079c531659141344cd1fd0a4f28419497f9722a3daafe3b4186f6b6457e060405160405180910390a35050565b6000808273ffffffffffffffffffffffffffffffffffffffff163b119050919050565b600060019054906101000a900460ff16610b4d576040517f08c379a0000000000000000000000000000000000000000000000000000000008152600401610b4490611497565b60405180910390fd5b610b55610bb0565b565b600060019054906101000a900460ff16610ba6576040517f08c379a0000000000000000000000000000000000000000000000000000000008152600401610b9d90611497565b60405180910390fd5b565b600033905090565b600060019054906101000a900460ff16610bff576040517f08c379a0000000000000000000000000000000000000000000000000000000008152600401610bf690611497565b60405180910390fd5b610c0f610c0a610ba8565b610a15565b565b6000604051905090565b600080fd5b600080fd5b600073ffffffffffffffffffffffffffffffffffffffff82169050919050565b6000610c5082610c25565b9050919050565b610c6081610c45565b8114610c6b57600080fd5b50565b600081359050610c7d81610c57565b92915050565b6000819050919050565b610c9681610c83565b8114610ca157600080fd5b50565b600081359050610cb381610c8d565b92915050565b600080600080600060a08688031215610cd557610cd4610c1b565b5b6000610ce388828901610c6e565b9550506020610cf488828901610c6e565b9450506040610d0588828901610c6e565b9350506060610d1688828901610ca4565b9250506080610d2788828901610ca4565b9150509295509295909350565b600060208284031215610d4a57610d49610c1b565b5b6000610d5884828501610c6e565b91505092915050565b610d6a81610c45565b82525050565b6000602082019050610d856000830184610d61565b92915050565b60008060008060008060c08789031215610da857610da7610c1b565b5b6000610db689828a01610c6e565b9650506020610dc789828a01610c6e565b9550506040610dd889828a01610c6e565b9450506060610de989828a01610ca4565b9350506080610dfa89828a01610ca4565b92505060a0610e0b89828a01610c6e565b9150509295509295509295565b610e2181610c83565b82525050565b6000606082019050610e3c6000830186610d61565b610e496020830185610d61565b610e566040830184610e18565b949350505050565b60008115159050919050565b610e7381610e5e565b8114610e7e57600080fd5b50565b600081519050610e9081610e6a565b92915050565b600060208284031215610eac57610eab610c1b565b5b6000610eba84828501610e81565b91505092915050565b6000604082019050610ed86000830185610d61565b610ee56020830184610e18565b9392505050565b7f4e487b7100000000000000000000000000000000000000000000000000000000600052604160045260246000fd5b7f4e487b7100000000000000000000000000000000000000000000000000000000600052603260045260246000fd5b600081519050919050565b600082825260208201905092915050565b6000819050602082019050919050565b610f7f81610c45565b82525050565b6000610f918383610f76565b60208301905092915050565b6000602082019050919050565b6000610fb582610f4a565b610fbf8185610f55565b9350610fca83610f66565b8060005b83811015610ffb578151610fe28882610f85565b9750610fed83610f9d565b925050600181019050610fce565b5085935050505092915050565b600060a08201905061101d6000830188610e18565b61102a6020830187610e18565b818103604083015261103c8186610faa565b905061104b6060830185610d61565b6110586080830184610e18565b9695505050505050565b600080fd5b6000601f19601f8301169050919050565b61108182611067565b810181811067ffffffffffffffff821117156110a05761109f610eec565b5b80604052505050565b60006110b3610c11565b90506110bf8282611078565b919050565b600067ffffffffffffffff8211156110df576110de610eec565b5b602082029050602081019050919050565b600080fd5b60008151905061110481610c8d565b92915050565b600061111d611118846110c4565b6110a9565b905080838252602082019050602084028301858111156111405761113f6110f0565b5b835b81811015611169578061115588826110f5565b845260208401935050602081019050611142565b5050509392505050565b600082601f83011261118857611187611062565b5b815161119884826020860161110a565b91505092915050565b6000602082840312156111b7576111b6610c1b565b5b600082015167ffffffffffffffff8111156111d5576111d4610c20565b5b6111e184828501611173565b91505092915050565b600082825260208201905092915050565b7f496e697469616c697a61626c653a20636f6e747261637420697320616c72656160008201527f647920696e697469616c697a6564000000000000000000000000000000000000602082015250565b6000611257602e836111ea565b9150611262826111fb565b604082019050919050565b600060208201905081810360008301526112868161124a565b9050919050565b6000819050919050565b600060ff82169050919050565b6000819050919050565b60006112c96112c46112bf8461128d565b6112a4565b611297565b9050919050565b6112d9816112ae565b82525050565b60006020820190506112f460008301846112d0565b92915050565b6000602082840312156113105761130f610c1b565b5b600061131e848285016110f5565b91505092915050565b7f4f776e61626c653a206e6577206f776e657220697320746865207a65726f206160008201527f6464726573730000000000000000000000000000000000000000000000000000602082015250565b60006113836026836111ea565b915061138e82611327565b604082019050919050565b600060208201905081810360008301526113b281611376565b9050919050565b7f4f776e61626c653a2063616c6c6572206973206e6f7420746865206f776e6572600082015250565b60006113ef6020836111ea565b91506113fa826113b9565b602082019050919050565b6000602082019050818103600083015261141e816113e2565b9050919050565b7f496e697469616c697a61626c653a20636f6e7472616374206973206e6f74206960008201527f6e697469616c697a696e67000000000000000000000000000000000000000000602082015250565b6000611481602b836111ea565b915061148c82611425565b604082019050919050565b600060208201905081810360008301526114b081611474565b905091905056fea2646970667358221220e84113d0c32c0f65eacdea197fb1223b5f76c0825a731f0f73dbcd8f583b9dc964736f6c63430008120033",
  "linkReferences": {},
  "deployedLinkReferences": {}
}